{"lib/MinimalReceiver.sol":{"MinimalReceiver":{"abi":[{"inputs":[{"internalType":"address","name":"","type":"address"},{"internalType":"address","name":"","type":"address"},{"internalType":"uint256[]","name":"","type":"uint256[]"},{"internalType":"uint256[]","name":"","type":"uint256[]"},{"internalType":"bytes","name":"","type":"bytes"}],"name":"onERC1155BatchReceived","outputs":[{"internalType":"bytes4","name":"","type":"bytes4"}],"stateMutability":"nonpayable","type":"function"},{"inputs":[{"internalType":"address","name":"","type":"address"},{"internalType":"address","name":"","type":"address"},{"internalType":"uint256","name":"","type":"uint256"},{"internalType":"uint256","name":"","type":"uint256"},{"internalType":"bytes","name":"","type":"bytes"}],"name":"onERC1155Received","outputs":[{"internalType":"bytes4","name":"","type":"bytes4"}],"stateMutability":"nonpayable","type":"function"},{"inputs":[{"internalType":"address","name":"","type":"address"},{"internalType":"address","name":"","type":"address"},{"internalType":"uint256","name":"","type":"uint256"},{"internalType":"bytes","name":"","type":"bytes"}],"name":"onERC721Received","outputs":[{"internalType":"bytes4","name":"","type":"bytes4"}],"stateMutability":"nonpayable","type":"function"},{"inputs":[{"internalType":"bytes4","name":"interfaceId","type":"bytes4"}],"name":"supportsInterface","outputs":[{"internalType":"bool","name":"","type":"bool"}],"stateMutability":"view","type":"function"},{"stateMutability":"payable","type":"receive"}],"evm":{"bytecode":{"linkReferences":{},"object":"608060405234801561001057600080fd5b5061061f806100206000396000f3fe6080604052600436106100435760003560e01c806301ffc9a71461004f578063150b7a0214610085578063bc197c81146100d6578063f23a6e611461011b57600080fd5b3661004a57005b600080fd5b34801561005b57600080fd5b5061006f61006a3660046101ee565b610160565b60405161007c9190610221565b60405180910390f35b34801561009157600080fd5b506100c96100a0366004610386565b7f150b7a0200000000000000000000000000000000000000000000000000000000949350505050565b60405161007c9190610415565b3480156100e257600080fd5b506100c96100f13660046104c6565b7fbc197c810000000000000000000000000000000000000000000000000000000095945050505050565b34801561012757600080fd5b506100c961013636600461058f565b7ff23a6e610000000000000000000000000000000000000000000000000000000095945050505050565b60006001600160e01b031982167f4e2312e00000000000000000000000000000000000000000000000000000000014806101c357507f01ffc9a7000000000000000000000000000000000000000000000000000000006001600160e01b03198316145b92915050565b6001600160e01b031981165b81146101e057600080fd5b50565b80356101c3816101c9565b60006020828403121561020357610203600080fd5b600061020f84846101e3565b949350505050565b8015155b82525050565b602081016101c38284610217565b600073ffffffffffffffffffffffffffffffffffffffff82166101c3565b6101d58161022f565b80356101c38161024d565b806101d5565b80356101c381610261565b7f4e487b7100000000000000000000000000000000000000000000000000000000600052604160045260246000fd5b601f19601f830116810181811067ffffffffffffffff821117156102c7576102c7610272565b6040525050565b60006102d960405190565b90506102e582826102a1565b919050565b600067ffffffffffffffff82111561030457610304610272565b601f19601f83011660200192915050565b82818337506000910152565b600061033461032f846102ea565b6102ce565b90508281526020810184848401111561034f5761034f600080fd5b61035a848285610315565b509392505050565b600082601f83011261037657610376600080fd5b813561020f848260208601610321565b6000806000806080858703121561039f5761039f600080fd5b60006103ab8787610256565b94505060206103bc87828801610256565b93505060406103cd87828801610267565b925050606085013567ffffffffffffffff8111156103ed576103ed600080fd5b6103f987828801610362565b91505092959194509250565b6001600160e01b0319811661021b565b602081016101c38284610405565b600067ffffffffffffffff82111561043d5761043d610272565b5060209081020190565b600061045561032f84610423565b8381529050602080820190840283018581111561047457610474600080fd5b835b8181101561049857806104898882610267565b84525060209283019201610476565b5050509392505050565b600082601f8301126104b6576104b6600080fd5b813561020f848260208601610447565b600080600080600060a086880312156104e1576104e1600080fd5b60006104ed8888610256565b95505060206104fe88828901610256565b945050604086013567ffffffffffffffff81111561051e5761051e600080fd5b61052a888289016104a2565b935050606086013567ffffffffffffffff81111561054a5761054a600080fd5b610556888289016104a2565b925050608086013567ffffffffffffffff81111561057657610576600080fd5b61058288828901610362565b9150509295509295909350565b600080600080600060a086880312156105aa576105aa600080fd5b60006105b68888610256565b95505060206105c788828901610256565b94505060406105d888828901610267565b93505060606105568882890161026756fea2646970667358221220e352f61643d7b311167313dea690e44d911fb371c2e9e88a67d2dec0d028797164736f6c63430008130033","opcodes":"PUSH1 0x80 PUSH1 0x40 MSTORE CALLVALUE DUP1 ISZERO PUSH2 0x10 JUMPI PUSH1 0x0 DUP1 REVERT JUMPDEST POP PUSH2 0x61F DUP1 PUSH2 0x20 PUSH1 0x0 CODECOPY PUSH1 0x0 RETURN INVALID PUSH1 0x80 PUSH1 0x40 MSTORE PUSH1 0x4 CALLDATASIZE LT PUSH2 0x43 JUMPI PUSH1 0x0 CALLDATALOAD PUSH1 0xE0 SHR DUP1 PUSH4 0x1FFC9A7 EQ PUSH2 0x4F JUMPI DUP1 PUSH4 0x150B7A02 EQ PUSH2 0x85 JUMPI DUP1 PUSH4 0xBC197C81 EQ PUSH2 0xD6 JUMPI DUP1 PUSH4 0xF23A6E61 EQ PUSH2 0x11B JUMPI PUSH1 0x0 DUP1 REVERT JUMPDEST CALLDATASIZE PUSH2 0x4A JUMPI STOP JUMPDEST PUSH1 0x0 DUP1 REVERT JUMPDEST CALLVALUE DUP1 ISZERO PUSH2 0x5B JUMPI PUSH1 0x0 DUP1 REVERT JUMPDEST POP PUSH2 0x6F PUSH2 0x6A CALLDATASIZE PUSH1 0x4 PUSH2 0x1EE JUMP JUMPDEST PUSH2 0x160 JUMP JUMPDEST PUSH1 0x40 MLOAD PUSH2 0x7C SWAP2 SWAP1 PUSH2 0x221 JUMP JUMPDEST PUSH1 0x40 MLOAD DUP1 SWAP2 SUB SWAP1 RETURN JUMPDEST CALLVALUE DUP1 ISZERO PUSH2 0x91 JUMPI PUSH1 0x0 DUP1 REVERT JUMPDEST POP PUSH2 0xC9 PUSH2 0xA0 CALLDATASIZE PUSH1 0x4 PUSH2 0x386 JUMP JUMPDEST PUSH32 0x150B7A0200000000000000000000000000000000000000000000000000000000 SWAP5 SWAP4 POP POP POP POP JUMP JUMPDEST PUSH1 0x40 MLOAD PUSH2 0x7C SWAP2 SWAP1 PUSH2 0x415 JUMP JUMPDEST CALLVALUE DUP1 ISZERO PUSH2 0xE2 JUMPI PUSH1 0x0 DUP1 REVERT JUMPDEST POP PUSH2 0xC9 PUSH2 0xF1 CALLDATASIZE PUSH1 0x4 PUSH2 0x4C6 JUMP JUMPDEST PUSH32 0xBC197C8100000000000000000000000000000000000000000000000000000000 SWAP6 SWAP5 POP POP POP POP POP JUMP JUMPDEST CALLVALUE DUP1 ISZERO PUSH2 0x127 JUMPI PUSH1 0x0 DUP1 REVERT JUMPDEST POP PUSH2 0xC9 PUSH2 0x136 CALLDATASIZE PUSH1 0x4 PUSH2 0x58F JUMP JUMPDEST PUSH32 0xF23A6E6100000000000000000000000000000000000000000000000000000000 SWAP6 SWAP5 POP POP POP POP POP JUMP JUMPDEST PUSH1 0x0 PUSH1 0x1 PUSH1 0x1 PUSH1 0xE0 SHL SUB NOT DUP3 AND PUSH32 0x4E2312E000000000000000000000000000000000000000000000000000000000 EQ DUP1 PUSH2 0x1C3 JUMPI POP PUSH32 0x1FFC9A700000000000000000000000000000000000000000000000000000000 PUSH1 0x1 PUSH1 0x1 PUSH1 0xE0 SHL SUB NOT DUP4 AND EQ JUMPDEST SWAP3 SWAP2 POP POP JUMP JUMPDEST PUSH1 0x1 PUSH1 0x1 PUSH1 0xE0 SHL SUB NOT DUP2 AND JUMPDEST DUP2 EQ PUSH2 0x1E0 JUMPI PUSH1 0x0 DUP1 REVERT JUMPDEST POP JUMP JUMPDEST DUP1 CALLDATALOAD PUSH2 0x1C3 DUP2 PUSH2 0x1C9 JUMP JUMPDEST PUSH1 0x0 PUSH1 0x20 DUP3 DUP5 SUB SLT ISZERO PUSH2 0x203 JUMPI PUSH2 0x203 PUSH1 0x0 DUP1 REVERT JUMPDEST PUSH1 0x0 PUSH2 0x20F DUP5 DUP5 PUSH2 0x1E3 JUMP JUMPDEST SWAP5 SWAP4 POP POP POP POP JUMP JUMPDEST DUP1 ISZERO ISZERO JUMPDEST DUP3 MSTORE POP POP JUMP JUMPDEST PUSH1 0x20 DUP2 ADD PUSH2 0x1C3 DUP3 DUP5 PUSH2 0x217 JUMP JUMPDEST PUSH1 0x0 PUSH20 0xFFFFFFFFFFFFFFFFFFFFFFFFFFFFFFFFFFFFFFFF DUP3 AND PUSH2 0x1C3 JUMP JUMPDEST PUSH2 0x1D5 DUP2 PUSH2 0x22F JUMP JUMPDEST DUP1 CALLDATALOAD PUSH2 0x1C3 DUP2 PUSH2 0x24D JUMP JUMPDEST DUP1 PUSH2 0x1D5 JUMP JUMPDEST DUP1 CALLDATALOAD PUSH2 0x1C3 DUP2 PUSH2 0x261 JUMP JUMPDEST PUSH32 0x4E487B7100000000000000000000000000000000000000000000000000000000 PUSH1 0x0 MSTORE PUSH1 0x41 PUSH1 0x4 MSTORE PUSH1 0x24 PUSH1 0x0 REVERT JUMPDEST PUSH1 0x1F NOT PUSH1 0x1F DUP4 ADD AND DUP2 ADD DUP2 DUP2 LT PUSH8 0xFFFFFFFFFFFFFFFF DUP3 GT OR ISZERO PUSH2 0x2C7 JUMPI PUSH2 0x2C7 PUSH2 0x272 JUMP JUMPDEST PUSH1 0x40 MSTORE POP POP JUMP JUMPDEST PUSH1 0x0 PUSH2 0x2D9 PUSH1 0x40 MLOAD SWAP1 JUMP JUMPDEST SWAP1 POP PUSH2 0x2E5 DUP3 DUP3 PUSH2 0x2A1 JUMP JUMPDEST SWAP2 SWAP1 POP JUMP JUMPDEST PUSH1 0x0 PUSH8 0xFFFFFFFFFFFFFFFF DUP3 GT ISZERO PUSH2 0x304 JUMPI PUSH2 0x304 PUSH2 0x272 JUMP JUMPDEST PUSH1 0x1F NOT PUSH1 0x1F DUP4 ADD AND PUSH1 0x20 ADD SWAP3 SWAP2 POP POP JUMP JUMPDEST DUP3 DUP2 DUP4 CALLDATACOPY POP PUSH1 0x0 SWAP2 ADD MSTORE JUMP JUMPDEST PUSH1 0x0 PUSH2 0x334 PUSH2 0x32F DUP5 PUSH2 0x2EA JUMP JUMPDEST PUSH2 0x2CE JUMP JUMPDEST SWAP1 POP DUP3 DUP2 MSTORE PUSH1 0x20 DUP2 ADD DUP5 DUP5 DUP5 ADD GT ISZERO PUSH2 0x34F JUMPI PUSH2 0x34F PUSH1 0x0 DUP1 REVERT JUMPDEST PUSH2 0x35A DUP5 DUP3 DUP6 PUSH2 0x315 JUMP JUMPDEST POP SWAP4 SWAP3 POP POP POP JUMP JUMPDEST PUSH1 0x0 DUP3 PUSH1 0x1F DUP4 ADD SLT PUSH2 0x376 JUMPI PUSH2 0x376 PUSH1 0x0 DUP1 REVERT JUMPDEST DUP2 CALLDATALOAD PUSH2 0x20F DUP5 DUP3 PUSH1 0x20 DUP7 ADD PUSH2 0x321 JUMP JUMPDEST PUSH1 0x0 DUP1 PUSH1 0x0 DUP1 PUSH1 0x80 DUP6 DUP8 SUB SLT ISZERO PUSH2 0x39F JUMPI PUSH2 0x39F PUSH1 0x0 DUP1 REVERT JUMPDEST PUSH1 0x0 PUSH2 0x3AB DUP8 DUP8 PUSH2 0x256 JUMP JUMPDEST SWAP5 POP POP PUSH1 0x20 PUSH2 0x3BC DUP8 DUP3 DUP9 ADD PUSH2 0x256 JUMP JUMPDEST SWAP4 POP POP PUSH1 0x40 PUSH2 0x3CD DUP8 DUP3 DUP9 ADD PUSH2 0x267 JUMP JUMPDEST SWAP3 POP POP PUSH1 0x60 DUP6 ADD CALLDATALOAD PUSH8 0xFFFFFFFFFFFFFFFF DUP2 GT ISZERO PUSH2 0x3ED JUMPI PUSH2 0x3ED PUSH1 0x0 DUP1 REVERT JUMPDEST PUSH2 0x3F9 DUP8 DUP3 DUP9 ADD PUSH2 0x362 JUMP JUMPDEST SWAP2 POP POP SWAP3 SWAP6 SWAP2 SWAP5 POP SWAP3 POP JUMP JUMPDEST PUSH1 0x1 PUSH1 0x1 PUSH1 0xE0 SHL SUB NOT DUP2 AND PUSH2 0x21B JUMP JUMPDEST PUSH1 0x20 DUP2 ADD PUSH2 0x1C3 DUP3 DUP5 PUSH2 0x405 JUMP JUMPDEST PUSH1 0x0 PUSH8 0xFFFFFFFFFFFFFFFF DUP3 GT ISZERO PUSH2 0x43D JUMPI PUSH2 0x43D PUSH2 0x272 JUMP JUMPDEST POP PUSH1 0x20 SWAP1 DUP2 MUL ADD SWAP1 JUMP JUMPDEST PUSH1 0x0 PUSH2 0x455 PUSH2 0x32F DUP5 PUSH2 0x423 JUMP JUMPDEST DUP4 DUP2 MSTORE SWAP1 POP PUSH1 0x20 DUP1 DUP3 ADD SWAP1 DUP5 MUL DUP4 ADD DUP6 DUP2 GT ISZERO PUSH2 0x474 JUMPI PUSH2 0x474 PUSH1 0x0 DUP1 REVERT JUMPDEST DUP4 JUMPDEST DUP2 DUP2 LT ISZERO PUSH2 0x498 JUMPI DUP1 PUSH2 0x489 DUP9 DUP3 PUSH2 0x267 JUMP JUMPDEST DUP5 MSTORE POP PUSH1 0x20 SWAP3 DUP4 ADD SWAP3 ADD PUSH2 0x476 JUMP JUMPDEST POP POP POP SWAP4 SWAP3 POP POP POP JUMP JUMPDEST PUSH1 0x0 DUP3 PUSH1 0x1F DUP4 ADD SLT PUSH2 0x4B6 JUMPI PUSH2 0x4B6 PUSH1 0x0 DUP1 REVERT JUMPDEST DUP2 CALLDATALOAD PUSH2 0x20F DUP5 DUP3 PUSH1 0x20 DUP7 ADD PUSH2 0x447 JUMP JUMPDEST PUSH1 0x0 DUP1 PUSH1 0x0 DUP1 PUSH1 0x0 PUSH1 0xA0 DUP7 DUP9 SUB SLT ISZERO PUSH2 0x4E1 JUMPI PUSH2 0x4E1 PUSH1 0x0 DUP1 REVERT JUMPDEST PUSH1 0x0 PUSH2 0x4ED DUP9 DUP9 PUSH2 0x256 JUMP JUMPDEST SWAP6 POP POP PUSH1 0x20 PUSH2 0x4FE DUP9 DUP3 DUP10 ADD PUSH2 0x256 JUMP JUMPDEST SWAP5 POP POP PUSH1 0x40 DUP7 ADD CALLDATALOAD PUSH8 0xFFFFFFFFFFFFFFFF DUP2 GT ISZERO PUSH2 0x51E JUMPI PUSH2 0x51E PUSH1 0x0 DUP1 REVERT JUMPDEST PUSH2 0x52A DUP9 DUP3 DUP10 ADD PUSH2 0x4A2 JUMP JUMPDEST SWAP4 POP POP PUSH1 0x60 DUP7 ADD CALLDATALOAD PUSH8 0xFFFFFFFFFFFFFFFF DUP2 GT ISZERO PUSH2 0x54A JUMPI PUSH2 0x54A PUSH1 0x0 DUP1 REVERT JUMPDEST PUSH2 0x556 DUP9 DUP3 DUP10 ADD PUSH2 0x4A2 JUMP JUMPDEST SWAP3 POP POP PUSH1 0x80 DUP7 ADD CALLDATALOAD PUSH8 0xFFFFFFFFFFFFFFFF DUP2 GT ISZERO PUSH2 0x576 JUMPI PUSH2 0x576 PUSH1 0x0 DUP1 REVERT JUMPDEST PUSH2 0x582 DUP9 DUP3 DUP10 ADD PUSH2 0x362 JUMP JUMPDEST SWAP2 POP POP SWAP3 SWAP6 POP SWAP3 SWAP6 SWAP1 SWAP4 POP JUMP JUMPDEST PUSH1 0x0 DUP1 PUSH1 0x0 DUP1 PUSH1 0x0 PUSH1 0xA0 DUP7 DUP9 SUB SLT ISZERO PUSH2 0x5AA JUMPI PUSH2 0x5AA PUSH1 0x0 DUP1 REVERT JUMPDEST PUSH1 0x0 PUSH2 0x5B6 DUP9 DUP9 PUSH2 0x256 JUMP JUMPDEST SWAP6 POP POP PUSH1 0x20 PUSH2 0x5C7 DUP9 DUP3 DUP10 ADD PUSH2 0x256 JUMP JUMPDEST SWAP5 POP POP PUSH1 0x40 PUSH2 0x5D8 DUP9 DUP3 DUP10 ADD PUSH2 0x267 JUMP JUMPDEST SWAP4 POP POP PUSH1 0x60 PUSH2 0x556 DUP9 DUP3 DUP10 ADD PUSH2 0x267 JUMP INVALID LOG2 PUSH5 0x6970667358 0x22 SLT KECCAK256 0xE3 MSTORE 0xF6 AND NUMBER 0xD7 0xB3 GT AND PUSH20 0x13DEA690E44D911FB371C2E9E88A67D2DEC0D028 PUSH26 0x7164736F6C634300081300330000000000000000000000000000 "},"methodIdentifiers":{"onERC1155BatchReceived(address,address,uint256[],uint256[],bytes)":"bc197c81","onERC1155Received(address,address,uint256,uint256,bytes)":"f23a6e61","onERC721Received(address,address,uint256,bytes)":"150b7a02","supportsInterface(bytes4)":"01ffc9a7"}}}}}