{"@openzeppelin/contracts/token/ERC1155/utils/ERC1155Holder.sol":{"ERC1155Holder":{"abi":[{"inputs":[{"internalType":"address","name":"","type":"address"},{"internalType":"address","name":"","type":"address"},{"internalType":"uint256[]","name":"","type":"uint256[]"},{"internalType":"uint256[]","name":"","type":"uint256[]"},{"internalType":"bytes","name":"","type":"bytes"}],"name":"onERC1155BatchReceived","outputs":[{"internalType":"bytes4","name":"","type":"bytes4"}],"stateMutability":"nonpayable","type":"function"},{"inputs":[{"internalType":"address","name":"","type":"address"},{"internalType":"address","name":"","type":"address"},{"internalType":"uint256","name":"","type":"uint256"},{"internalType":"uint256","name":"","type":"uint256"},{"internalType":"bytes","name":"","type":"bytes"}],"name":"onERC1155Received","outputs":[{"internalType":"bytes4","name":"","type":"bytes4"}],"stateMutability":"nonpayable","type":"function"},{"inputs":[{"internalType":"bytes4","name":"interfaceId","type":"bytes4"}],"name":"supportsInterface","outputs":[{"internalType":"bool","name":"","type":"bool"}],"stateMutability":"view","type":"function"}],"evm":{"bytecode":{"linkReferences":{},"object":"608060405234801561001057600080fd5b5061052c806100206000396000f3fe608060405234801561001057600080fd5b50600436106100415760003560e01c806301ffc9a714610046578063bc197c811461006f578063f23a6e61146100b4575b600080fd5b61005961005436600461017a565b6100ec565b60405161006691906101ad565b60405180910390f35b6100a761007d3660046103b5565b7fbc197c810000000000000000000000000000000000000000000000000000000095945050505050565b604051610066919061048e565b6100a76100c236600461049c565b7ff23a6e610000000000000000000000000000000000000000000000000000000095945050505050565b60006001600160e01b031982167f4e2312e000000000000000000000000000000000000000000000000000000000148061014f57507f01ffc9a7000000000000000000000000000000000000000000000000000000006001600160e01b03198316145b92915050565b6001600160e01b031981165b811461016c57600080fd5b50565b803561014f81610155565b60006020828403121561018f5761018f600080fd5b600061019b848461016f565b949350505050565b8015155b82525050565b6020810161014f82846101a3565b600073ffffffffffffffffffffffffffffffffffffffff821661014f565b610161816101bb565b803561014f816101d9565b7f4e487b7100000000000000000000000000000000000000000000000000000000600052604160045260246000fd5b601f19601f830116810181811067ffffffffffffffff82111715610242576102426101ed565b6040525050565b600061025460405190565b9050610260828261021c565b919050565b600067ffffffffffffffff82111561027f5761027f6101ed565b5060209081020190565b80610161565b803561014f81610289565b60006102ad6102a884610265565b610249565b838152905060208082019084028301858111156102cc576102cc600080fd5b835b818110156102f057806102e1888261028f565b845250602092830192016102ce565b5050509392505050565b600082601f83011261030e5761030e600080fd5b813561019b84826020860161029a565b600067ffffffffffffffff821115610338576103386101ed565b601f19601f83011660200192915050565b82818337506000910152565b60006103636102a88461031e565b90508281526020810184848401111561037e5761037e600080fd5b610389848285610349565b509392505050565b600082601f8301126103a5576103a5600080fd5b813561019b848260208601610355565b600080600080600060a086880312156103d0576103d0600080fd5b60006103dc88886101e2565b95505060206103ed888289016101e2565b945050604086013567ffffffffffffffff81111561040d5761040d600080fd5b610419888289016102fa565b935050606086013567ffffffffffffffff81111561043957610439600080fd5b610445888289016102fa565b925050608086013567ffffffffffffffff81111561046557610465600080fd5b61047188828901610391565b9150509295509295909350565b6001600160e01b031981166101a7565b6020810161014f828461047e565b600080600080600060a086880312156104b7576104b7600080fd5b60006104c388886101e2565b95505060206104d4888289016101e2565b94505060406104e58882890161028f565b93505060606104458882890161028f56fea264697066735822122006cc292ff984bc338caed71d80a9aa0f0cc096cc942a04eca7e16b47c4a0ed6664736f6c63430008130033","opcodes":"PUSH1 0x80 PUSH1 0x40 MSTORE CALLVALUE DUP1 ISZERO PUSH2 0x10 JUMPI PUSH1 0x0 DUP1 REVERT JUMPDEST POP PUSH2 0x52C DUP1 PUSH2 0x20 PUSH1 0x0 CODECOPY PUSH1 0x0 RETURN INVALID PUSH1 0x80 PUSH1 0x40 MSTORE CALLVALUE DUP1 ISZERO PUSH2 0x10 JUMPI PUSH1 0x0 DUP1 REVERT JUMPDEST POP PUSH1 0x4 CALLDATASIZE LT PUSH2 0x41 JUMPI PUSH1 0x0 CALLDATALOAD PUSH1 0xE0 SHR DUP1 PUSH4 0x1FFC9A7 EQ PUSH2 0x46 JUMPI DUP1 PUSH4 0xBC197C81 EQ PUSH2 0x6F JUMPI DUP1 PUSH4 0xF23A6E61 EQ PUSH2 0xB4 JUMPI JUMPDEST PUSH1 0x0 DUP1 REVERT JUMPDEST PUSH2 0x59 PUSH2 0x54 CALLDATASIZE PUSH1 0x4 PUSH2 0x17A JUMP JUMPDEST PUSH2 0xEC JUMP JUMPDEST PUSH1 0x40 MLOAD PUSH2 0x66 SWAP2 SWAP1 PUSH2 0x1AD JUMP JUMPDEST PUSH1 0x40 MLOAD DUP1 SWAP2 SUB SWAP1 RETURN JUMPDEST PUSH2 0xA7 PUSH2 0x7D CALLDATASIZE PUSH1 0x4 PUSH2 0x3B5 JUMP JUMPDEST PUSH32 0xBC197C8100000000000000000000000000000000000000000000000000000000 SWAP6 SWAP5 POP POP POP POP POP JUMP JUMPDEST PUSH1 0x40 MLOAD PUSH2 0x66 SWAP2 SWAP1 PUSH2 0x48E JUMP JUMPDEST PUSH2 0xA7 PUSH2 0xC2 CALLDATASIZE PUSH1 0x4 PUSH2 0x49C JUMP JUMPDEST PUSH32 0xF23A6E6100000000000000000000000000000000000000000000000000000000 SWAP6 SWAP5 POP POP POP POP POP JUMP JUMPDEST PUSH1 0x0 PUSH1 0x1 PUSH1 0x1 PUSH1 0xE0 SHL SUB NOT DUP3 AND PUSH32 0x4E2312E000000000000000000000000000000000000000000000000000000000 EQ DUP1 PUSH2 0x14F JUMPI POP PUSH32 0x1FFC9A700000000000000000000000000000000000000000000000000000000 PUSH1 0x1 PUSH1 0x1 PUSH1 0xE0 SHL SUB NOT DUP4 AND EQ JUMPDEST SWAP3 SWAP2 POP POP JUMP JUMPDEST PUSH1 0x1 PUSH1 0x1 PUSH1 0xE0 SHL SUB NOT DUP2 AND JUMPDEST DUP2 EQ PUSH2 0x16C JUMPI PUSH1 0x0 DUP1 REVERT JUMPDEST POP JUMP JUMPDEST DUP1 CALLDATALOAD PUSH2 0x14F DUP2 PUSH2 0x155 JUMP JUMPDEST PUSH1 0x0 PUSH1 0x20 DUP3 DUP5 SUB SLT ISZERO PUSH2 0x18F JUMPI PUSH2 0x18F PUSH1 0x0 DUP1 REVERT JUMPDEST PUSH1 0x0 PUSH2 0x19B DUP5 DUP5 PUSH2 0x16F JUMP JUMPDEST SWAP5 SWAP4 POP POP POP POP JUMP JUMPDEST DUP1 ISZERO ISZERO JUMPDEST DUP3 MSTORE POP POP JUMP JUMPDEST PUSH1 0x20 DUP2 ADD PUSH2 0x14F DUP3 DUP5 PUSH2 0x1A3 JUMP JUMPDEST PUSH1 0x0 PUSH20 0xFFFFFFFFFFFFFFFFFFFFFFFFFFFFFFFFFFFFFFFF DUP3 AND PUSH2 0x14F JUMP JUMPDEST PUSH2 0x161 DUP2 PUSH2 0x1BB JUMP JUMPDEST DUP1 CALLDATALOAD PUSH2 0x14F DUP2 PUSH2 0x1D9 JUMP JUMPDEST PUSH32 0x4E487B7100000000000000000000000000000000000000000000000000000000 PUSH1 0x0 MSTORE PUSH1 0x41 PUSH1 0x4 MSTORE PUSH1 0x24 PUSH1 0x0 REVERT JUMPDEST PUSH1 0x1F NOT PUSH1 0x1F DUP4 ADD AND DUP2 ADD DUP2 DUP2 LT PUSH8 0xFFFFFFFFFFFFFFFF DUP3 GT OR ISZERO PUSH2 0x242 JUMPI PUSH2 0x242 PUSH2 0x1ED JUMP JUMPDEST PUSH1 0x40 MSTORE POP POP JUMP JUMPDEST PUSH1 0x0 PUSH2 0x254 PUSH1 0x40 MLOAD SWAP1 JUMP JUMPDEST SWAP1 POP PUSH2 0x260 DUP3 DUP3 PUSH2 0x21C JUMP JUMPDEST SWAP2 SWAP1 POP JUMP JUMPDEST PUSH1 0x0 PUSH8 0xFFFFFFFFFFFFFFFF DUP3 GT ISZERO PUSH2 0x27F JUMPI PUSH2 0x27F PUSH2 0x1ED JUMP JUMPDEST POP PUSH1 0x20 SWAP1 DUP2 MUL ADD SWAP1 JUMP JUMPDEST DUP1 PUSH2 0x161 JUMP JUMPDEST DUP1 CALLDATALOAD PUSH2 0x14F DUP2 PUSH2 0x289 JUMP JUMPDEST PUSH1 0x0 PUSH2 0x2AD PUSH2 0x2A8 DUP5 PUSH2 0x265 JUMP JUMPDEST PUSH2 0x249 JUMP JUMPDEST DUP4 DUP2 MSTORE SWAP1 POP PUSH1 0x20 DUP1 DUP3 ADD SWAP1 DUP5 MUL DUP4 ADD DUP6 DUP2 GT ISZERO PUSH2 0x2CC JUMPI PUSH2 0x2CC PUSH1 0x0 DUP1 REVERT JUMPDEST DUP4 JUMPDEST DUP2 DUP2 LT ISZERO PUSH2 0x2F0 JUMPI DUP1 PUSH2 0x2E1 DUP9 DUP3 PUSH2 0x28F JUMP JUMPDEST DUP5 MSTORE POP PUSH1 0x20 SWAP3 DUP4 ADD SWAP3 ADD PUSH2 0x2CE JUMP JUMPDEST POP POP POP SWAP4 SWAP3 POP POP POP JUMP JUMPDEST PUSH1 0x0 DUP3 PUSH1 0x1F DUP4 ADD SLT PUSH2 0x30E JUMPI PUSH2 0x30E PUSH1 0x0 DUP1 REVERT JUMPDEST DUP2 CALLDATALOAD PUSH2 0x19B DUP5 DUP3 PUSH1 0x20 DUP7 ADD PUSH2 0x29A JUMP JUMPDEST PUSH1 0x0 PUSH8 0xFFFFFFFFFFFFFFFF DUP3 GT ISZERO PUSH2 0x338 JUMPI PUSH2 0x338 PUSH2 0x1ED JUMP JUMPDEST PUSH1 0x1F NOT PUSH1 0x1F DUP4 ADD AND PUSH1 0x20 ADD SWAP3 SWAP2 POP POP JUMP JUMPDEST DUP3 DUP2 DUP4 CALLDATACOPY POP PUSH1 0x0 SWAP2 ADD MSTORE JUMP JUMPDEST PUSH1 0x0 PUSH2 0x363 PUSH2 0x2A8 DUP5 PUSH2 0x31E JUMP JUMPDEST SWAP1 POP DUP3 DUP2 MSTORE PUSH1 0x20 DUP2 ADD DUP5 DUP5 DUP5 ADD GT ISZERO PUSH2 0x37E JUMPI PUSH2 0x37E PUSH1 0x0 DUP1 REVERT JUMPDEST PUSH2 0x389 DUP5 DUP3 DUP6 PUSH2 0x349 JUMP JUMPDEST POP SWAP4 SWAP3 POP POP POP JUMP JUMPDEST PUSH1 0x0 DUP3 PUSH1 0x1F DUP4 ADD SLT PUSH2 0x3A5 JUMPI PUSH2 0x3A5 PUSH1 0x0 DUP1 REVERT JUMPDEST DUP2 CALLDATALOAD PUSH2 0x19B DUP5 DUP3 PUSH1 0x20 DUP7 ADD PUSH2 0x355 JUMP JUMPDEST PUSH1 0x0 DUP1 PUSH1 0x0 DUP1 PUSH1 0x0 PUSH1 0xA0 DUP7 DUP9 SUB SLT ISZERO PUSH2 0x3D0 JUMPI PUSH2 0x3D0 PUSH1 0x0 DUP1 REVERT JUMPDEST PUSH1 0x0 PUSH2 0x3DC DUP9 DUP9 PUSH2 0x1E2 JUMP JUMPDEST SWAP6 POP POP PUSH1 0x20 PUSH2 0x3ED DUP9 DUP3 DUP10 ADD PUSH2 0x1E2 JUMP JUMPDEST SWAP5 POP POP PUSH1 0x40 DUP7 ADD CALLDATALOAD PUSH8 0xFFFFFFFFFFFFFFFF DUP2 GT ISZERO PUSH2 0x40D JUMPI PUSH2 0x40D PUSH1 0x0 DUP1 REVERT JUMPDEST PUSH2 0x419 DUP9 DUP3 DUP10 ADD PUSH2 0x2FA JUMP JUMPDEST SWAP4 POP POP PUSH1 0x60 DUP7 ADD CALLDATALOAD PUSH8 0xFFFFFFFFFFFFFFFF DUP2 GT ISZERO PUSH2 0x439 JUMPI PUSH2 0x439 PUSH1 0x0 DUP1 REVERT JUMPDEST PUSH2 0x445 DUP9 DUP3 DUP10 ADD PUSH2 0x2FA JUMP JUMPDEST SWAP3 POP POP PUSH1 0x80 DUP7 ADD CALLDATALOAD PUSH8 0xFFFFFFFFFFFFFFFF DUP2 GT ISZERO PUSH2 0x465 JUMPI PUSH2 0x465 PUSH1 0x0 DUP1 REVERT JUMPDEST PUSH2 0x471 DUP9 DUP3 DUP10 ADD PUSH2 0x391 JUMP JUMPDEST SWAP2 POP POP SWAP3 SWAP6 POP SWAP3 SWAP6 SWAP1 SWAP4 POP JUMP JUMPDEST PUSH1 0x1 PUSH1 0x1 PUSH1 0xE0 SHL SUB NOT DUP2 AND PUSH2 0x1A7 JUMP JUMPDEST PUSH1 0x20 DUP2 ADD PUSH2 0x14F DUP3 DUP5 PUSH2 0x47E JUMP JUMPDEST PUSH1 0x0 DUP1 PUSH1 0x0 DUP1 PUSH1 0x0 PUSH1 0xA0 DUP7 DUP9 SUB SLT ISZERO PUSH2 0x4B7 JUMPI PUSH2 0x4B7 PUSH1 0x0 DUP1 REVERT JUMPDEST PUSH1 0x0 PUSH2 0x4C3 DUP9 DUP9 PUSH2 0x1E2 JUMP JUMPDEST SWAP6 POP POP PUSH1 0x20 PUSH2 0x4D4 DUP9 DUP3 DUP10 ADD PUSH2 0x1E2 JUMP JUMPDEST SWAP5 POP POP PUSH1 0x40 PUSH2 0x4E5 DUP9 DUP3 DUP10 ADD PUSH2 0x28F JUMP JUMPDEST SWAP4 POP POP PUSH1 0x60 PUSH2 0x445 DUP9 DUP3 DUP10 ADD PUSH2 0x28F JUMP INVALID LOG2 PUSH5 0x6970667358 0x22 SLT KECCAK256 MOD 0xCC 0x29 0x2F 0xF9 DUP5 0xBC CALLER DUP13 0xAE 0xD7 SAR DUP1 0xA9 0xAA 0xF 0xC 0xC0 SWAP7 0xCC SWAP5 0x2A DIV 0xEC 0xA7 0xE1 PUSH12 0x47C4A0ED6664736F6C634300 ADDMOD SGT STOP CALLER "},"methodIdentifiers":{"onERC1155BatchReceived(address,address,uint256[],uint256[],bytes)":"bc197c81","onERC1155Received(address,address,uint256,uint256,bytes)":"f23a6e61","supportsInterface(bytes4)":"01ffc9a7"}}}}}