{"contracts/ERC6551Account.sol":{"ERC6551Account":{"abi":[{"anonymous":false,"inputs":[{"indexed":true,"internalType":"address","name":"target","type":"address"},{"indexed":true,"internalType":"uint256","name":"value","type":"uint256"},{"indexed":false,"internalType":"bytes","name":"data","type":"bytes"}],"name":"TransactionExecuted","type":"event"},{"inputs":[{"internalType":"address","name":"to","type":"address"},{"internalType":"uint256","name":"value","type":"uint256"},{"internalType":"bytes","name":"data","type":"bytes"}],"name":"executeCall","outputs":[{"internalType":"bytes","name":"result","type":"bytes"}],"stateMutability":"payable","type":"function"},{"inputs":[{"internalType":"bytes32","name":"hash","type":"bytes32"},{"internalType":"bytes","name":"signature","type":"bytes"}],"name":"isValidSignature","outputs":[{"internalType":"bytes4","name":"magicValue","type":"bytes4"}],"stateMutability":"view","type":"function"},{"inputs":[],"name":"nonce","outputs":[{"internalType":"uint256","name":"","type":"uint256"}],"stateMutability":"view","type":"function"},{"inputs":[],"name":"owner","outputs":[{"internalType":"address","name":"","type":"address"}],"stateMutability":"view","type":"function"},{"inputs":[{"internalType":"bytes4","name":"interfaceId","type":"bytes4"}],"name":"supportsInterface","outputs":[{"internalType":"bool","name":"","type":"bool"}],"stateMutability":"pure","type":"function"},{"inputs":[],"name":"token","outputs":[{"internalType":"uint256","name":"","type":"uint256"},{"internalType":"address","name":"","type":"address"},{"internalType":"uint256","name":"","type":"uint256"}],"stateMutability":"view","type":"function"},{"stateMutability":"payable","type":"receive"}],"evm":{"bytecode":{"linkReferences":{},"object":"608060405234801561001057600080fd5b50610cd9806100206000396000f3fe6080604052600436106100695760003560e01c80639e5d4c49116100435780639e5d4c49146100fa578063affed0e01461011a578063fc0c546a1461013d57600080fd5b806301ffc9a7146100755780631626ba7e146100ab5780638da5cb5b146100d857600080fd5b3661007057005b600080fd5b34801561008157600080fd5b5061009561009036600461072c565b610161565b6040516100a2919061075f565b60405180910390f35b3480156100b757600080fd5b506100cb6100c6366004610879565b6101ca565b6040516100a291906108e1565b3480156100e457600080fd5b506100ed610201565b6040516100a29190610909565b61010d610108366004610976565b61030e565b6040516100a29190610a3c565b34801561012657600080fd5b5061013060005481565b6040516100a29190610a5a565b34801561014957600080fd5b5061015261043e565b6040516100a293929190610a68565b60006001600160e01b031982167f01ffc9a70000000000000000000000000000000000000000000000000000000014806101c457506001600160e01b031982167f400a039800000000000000000000000000000000000000000000000000000000145b92915050565b6000806101df6101d8610201565b8585610456565b905080156101f75750630b135d3f60e11b90506101c4565b5060009392505050565b600080600080306001600160a01b031663fc0c546a6040518163ffffffff1660e01b8152600401606060405180830381865afa158015610245573d6000803e3d6000fd5b505050506040513d601f19601f820116820180604052508101906102699190610aa6565b925092509250468314610280576000935050505090565b6040517f6352211e0000000000000000000000000000000000000000000000000000000081526001600160a01b03831690636352211e906102c5908490600401610a5a565b602060405180830381865afa1580156102e2573d6000803e3d6000fd5b505050506040513d601f19601f820116820180604052508101906103069190610af6565b935050505090565b6060610318610201565b6001600160a01b0316336001600160a01b03161461036b576040517f08c379a000000000000000000000000000000000000000000000000000000000815260040161036290610b17565b60405180910390fd5b600080815461037990610b68565b9190508190555083856001600160a01b03167f47d99ad340f52da66535aff7e10da1ceb85a32bcbd9fa1c42314d194545e14d285856040516103bc929190610ba5565b60405180910390a36000856001600160a01b03168585856040516103e1929190610bca565b60006040518083038185875af1925050503d806000811461041e576040519150601f19603f3d011682016040523d82523d6000602084013e610423565b606091505b50925090508061043557815160208301fd5b50949350505050565b600080600061044b6104b7565b925092509250909192565b6000806000610465858561050a565b9092509050600081600481111561047e5761047e610bd7565b14801561049c5750856001600160a01b0316826001600160a01b0316145b806104ad57506104ad86868661054f565b9695505050505050565b60408051606080825260808201909252600091829182918291906020820181803683370190505090506060604d60208301303c808060200190518101906104fe9190610aa6565b93509350935050909192565b60008082516041036105405760208301516040840151606085015160001a61053487828585610650565b94509450505050610548565b506000905060025b9250929050565b6000806000856001600160a01b0316631626ba7e60e01b8686604051602401610579929190610bed565b60408051601f198184030181529181526020820180517bffffffffffffffffffffffffffffffffffffffffffffffffffffffff166001600160e01b03199094169390931790925290516105cc9190610c2f565b600060405180830381855afa9150503d8060008114610607576040519150601f19603f3d011682016040523d82523d6000602084013e61060c565b606091505b509150915081801561062057506020815110155b80156104ad57508051630b135d3f60e11b906106459083016020908101908401610c3b565b149695505050505050565b6000807f7fffffffffffffffffffffffffffffff5d576e7357a4501ddfe92f46681b20a083111561068757506000905060036106fe565b6000600187878787604051600081526020016040526040516106ac9493929190610c65565b6020604051602081039080840390855afa1580156106ce573d6000803e3d6000fd5b5050604051601f1901519150506001600160a01b0381166106f7576000600192509250506106fe565b9150600090505b94509492505050565b6001600160e01b031981165b811461071e57600080fd5b50565b80356101c481610707565b60006020828403121561074157610741600080fd5b600061074d8484610721565b949350505050565b8015155b82525050565b602081016101c48284610755565b80610713565b80356101c48161076d565b634e487b7160e01b600052604160045260246000fd5b601f19601f830116810181811067ffffffffffffffff821117156107ba576107ba61077e565b6040525050565b60006107cc60405190565b90506107d88282610794565b919050565b600067ffffffffffffffff8211156107f7576107f761077e565b601f19601f83011660200192915050565b82818337506000910152565b6000610827610822846107dd565b6107c1565b90508281526020810184848401111561084257610842600080fd5b61084d848285610808565b509392505050565b600082601f83011261086957610869600080fd5b813561074d848260208601610814565b6000806040838503121561088f5761088f600080fd5b600061089b8585610773565b925050602083013567ffffffffffffffff8111156108bb576108bb600080fd5b6108c785828601610855565b9150509250929050565b6001600160e01b03198116610759565b602081016101c482846108d1565b60006001600160a01b0382166101c4565b610759816108ef565b602081016101c48284610900565b610713816108ef565b80356101c481610917565b60008083601f84011261094057610940600080fd5b50813567ffffffffffffffff81111561095b5761095b600080fd5b60208301915083600182028301111561054857610548600080fd5b6000806000806060858703121561098f5761098f600080fd5b600061099b8787610920565b94505060206109ac87828801610773565b935050604085013567ffffffffffffffff8111156109cc576109cc600080fd5b6109d88782880161092b565b95989497509550505050565b60005b838110156109ff5781810151838201526020016109e7565b50506000910152565b6000610a12825190565b808452602084019350610a298185602086016109e4565b601f19601f8201165b9093019392505050565b60208082528101610a4d8184610a08565b9392505050565b80610759565b602081016101c48284610a54565b60608101610a768286610a54565b610a836020830185610900565b61074d6040830184610a54565b80516101c48161076d565b80516101c481610917565b600080600060608486031215610abe57610abe600080fd5b6000610aca8686610a90565b9350506020610adb86828701610a9b565b9250506040610aec86828701610a90565b9150509250925092565b600060208284031215610b0b57610b0b600080fd5b600061074d8484610a9b565b602080825281016101c481600f81527f4e6f7420746f6b656e206f776e65720000000000000000000000000000000000602082015260400190565b634e487b7160e01b600052601160045260246000fd5b60006000198203610b7b57610b7b610b52565b5060010190565b8183526000602084019350610b98838584610808565b601f19601f840116610a32565b6020808252810161074d818486610b82565b6000610bc4838584610808565b50500190565b600061074d828486610bb7565b634e487b7160e01b600052602160045260246000fd5b60408101610bfb8285610a54565b818103602083015261074d8184610a08565b6000610c17825190565b610c258185602086016109e4565b9290920192915050565b6000610a4d8284610c0d565b600060208284031215610c5057610c50600080fd5b600061074d8484610a90565b60ff8116610759565b60808101610c738287610a54565b610c806020830186610c5c565b610c8d6040830185610a54565b610c9a6060830184610a54565b9594505050505056fea2646970667358221220ab3da343b93214510cebe5ef15f63606be76e09ef41ef093be9396feb5b5c06d64736f6c63430008130033","opcodes":"PUSH1 0x80 PUSH1 0x40 MSTORE CALLVALUE DUP1 ISZERO PUSH2 0x10 JUMPI PUSH1 0x0 DUP1 REVERT JUMPDEST POP PUSH2 0xCD9 DUP1 PUSH2 0x20 PUSH1 0x0 CODECOPY PUSH1 0x0 RETURN INVALID PUSH1 0x80 PUSH1 0x40 MSTORE PUSH1 0x4 CALLDATASIZE LT PUSH2 0x69 JUMPI PUSH1 0x0 CALLDATALOAD PUSH1 0xE0 SHR DUP1 PUSH4 0x9E5D4C49 GT PUSH2 0x43 JUMPI DUP1 PUSH4 0x9E5D4C49 EQ PUSH2 0xFA JUMPI DUP1 PUSH4 0xAFFED0E0 EQ PUSH2 0x11A JUMPI DUP1 PUSH4 0xFC0C546A EQ PUSH2 0x13D JUMPI PUSH1 0x0 DUP1 REVERT JUMPDEST DUP1 PUSH4 0x1FFC9A7 EQ PUSH2 0x75 JUMPI DUP1 PUSH4 0x1626BA7E EQ PUSH2 0xAB JUMPI DUP1 PUSH4 0x8DA5CB5B EQ PUSH2 0xD8 JUMPI PUSH1 0x0 DUP1 REVERT JUMPDEST CALLDATASIZE PUSH2 0x70 JUMPI STOP JUMPDEST PUSH1 0x0 DUP1 REVERT JUMPDEST CALLVALUE DUP1 ISZERO PUSH2 0x81 JUMPI PUSH1 0x0 DUP1 REVERT JUMPDEST POP PUSH2 0x95 PUSH2 0x90 CALLDATASIZE PUSH1 0x4 PUSH2 0x72C JUMP JUMPDEST PUSH2 0x161 JUMP JUMPDEST PUSH1 0x40 MLOAD PUSH2 0xA2 SWAP2 SWAP1 PUSH2 0x75F JUMP JUMPDEST PUSH1 0x40 MLOAD DUP1 SWAP2 SUB SWAP1 RETURN JUMPDEST CALLVALUE DUP1 ISZERO PUSH2 0xB7 JUMPI PUSH1 0x0 DUP1 REVERT JUMPDEST POP PUSH2 0xCB PUSH2 0xC6 CALLDATASIZE PUSH1 0x4 PUSH2 0x879 JUMP JUMPDEST PUSH2 0x1CA JUMP JUMPDEST PUSH1 0x40 MLOAD PUSH2 0xA2 SWAP2 SWAP1 PUSH2 0x8E1 JUMP JUMPDEST CALLVALUE DUP1 ISZERO PUSH2 0xE4 JUMPI PUSH1 0x0 DUP1 REVERT JUMPDEST POP PUSH2 0xED PUSH2 0x201 JUMP JUMPDEST PUSH1 0x40 MLOAD PUSH2 0xA2 SWAP2 SWAP1 PUSH2 0x909 JUMP JUMPDEST PUSH2 0x10D PUSH2 0x108 CALLDATASIZE PUSH1 0x4 PUSH2 0x976 JUMP JUMPDEST PUSH2 0x30E JUMP JUMPDEST PUSH1 0x40 MLOAD PUSH2 0xA2 SWAP2 SWAP1 PUSH2 0xA3C JUMP JUMPDEST CALLVALUE DUP1 ISZERO PUSH2 0x126 JUMPI PUSH1 0x0 DUP1 REVERT JUMPDEST POP PUSH2 0x130 PUSH1 0x0 SLOAD DUP2 JUMP JUMPDEST PUSH1 0x40 MLOAD PUSH2 0xA2 SWAP2 SWAP1 PUSH2 0xA5A JUMP JUMPDEST CALLVALUE DUP1 ISZERO PUSH2 0x149 JUMPI PUSH1 0x0 DUP1 REVERT JUMPDEST POP PUSH2 0x152 PUSH2 0x43E JUMP JUMPDEST PUSH1 0x40 MLOAD PUSH2 0xA2 SWAP4 SWAP3 SWAP2 SWAP1 PUSH2 0xA68 JUMP JUMPDEST PUSH1 0x0 PUSH1 0x1 PUSH1 0x1 PUSH1 0xE0 SHL SUB NOT DUP3 AND PUSH32 0x1FFC9A700000000000000000000000000000000000000000000000000000000 EQ DUP1 PUSH2 0x1C4 JUMPI POP PUSH1 0x1 PUSH1 0x1 PUSH1 0xE0 SHL SUB NOT DUP3 AND PUSH32 0x400A039800000000000000000000000000000000000000000000000000000000 EQ JUMPDEST SWAP3 SWAP2 POP POP JUMP JUMPDEST PUSH1 0x0 DUP1 PUSH2 0x1DF PUSH2 0x1D8 PUSH2 0x201 JUMP JUMPDEST DUP6 DUP6 PUSH2 0x456 JUMP JUMPDEST SWAP1 POP DUP1 ISZERO PUSH2 0x1F7 JUMPI POP PUSH4 0xB135D3F PUSH1 0xE1 SHL SWAP1 POP PUSH2 0x1C4 JUMP JUMPDEST POP PUSH1 0x0 SWAP4 SWAP3 POP POP POP JUMP JUMPDEST PUSH1 0x0 DUP1 PUSH1 0x0 DUP1 ADDRESS PUSH1 0x1 PUSH1 0x1 PUSH1 0xA0 SHL SUB AND PUSH4 0xFC0C546A PUSH1 0x40 MLOAD DUP2 PUSH4 0xFFFFFFFF AND PUSH1 0xE0 SHL DUP2 MSTORE PUSH1 0x4 ADD PUSH1 0x60 PUSH1 0x40 MLOAD DUP1 DUP4 SUB DUP2 DUP7 GAS STATICCALL ISZERO DUP1 ISZERO PUSH2 0x245 JUMPI RETURNDATASIZE PUSH1 0x0 DUP1 RETURNDATACOPY RETURNDATASIZE PUSH1 0x0 REVERT JUMPDEST POP POP POP POP PUSH1 0x40 MLOAD RETURNDATASIZE PUSH1 0x1F NOT PUSH1 0x1F DUP3 ADD AND DUP3 ADD DUP1 PUSH1 0x40 MSTORE POP DUP2 ADD SWAP1 PUSH2 0x269 SWAP2 SWAP1 PUSH2 0xAA6 JUMP JUMPDEST SWAP3 POP SWAP3 POP SWAP3 POP CHAINID DUP4 EQ PUSH2 0x280 JUMPI PUSH1 0x0 SWAP4 POP POP POP POP SWAP1 JUMP JUMPDEST PUSH1 0x40 MLOAD PUSH32 0x6352211E00000000000000000000000000000000000000000000000000000000 DUP2 MSTORE PUSH1 0x1 PUSH1 0x1 PUSH1 0xA0 SHL SUB DUP4 AND SWAP1 PUSH4 0x6352211E SWAP1 PUSH2 0x2C5 SWAP1 DUP5 SWAP1 PUSH1 0x4 ADD PUSH2 0xA5A JUMP JUMPDEST PUSH1 0x20 PUSH1 0x40 MLOAD DUP1 DUP4 SUB DUP2 DUP7 GAS STATICCALL ISZERO DUP1 ISZERO PUSH2 0x2E2 JUMPI RETURNDATASIZE PUSH1 0x0 DUP1 RETURNDATACOPY RETURNDATASIZE PUSH1 0x0 REVERT JUMPDEST POP POP POP POP PUSH1 0x40 MLOAD RETURNDATASIZE PUSH1 0x1F NOT PUSH1 0x1F DUP3 ADD AND DUP3 ADD DUP1 PUSH1 0x40 MSTORE POP DUP2 ADD SWAP1 PUSH2 0x306 SWAP2 SWAP1 PUSH2 0xAF6 JUMP JUMPDEST SWAP4 POP POP POP POP SWAP1 JUMP JUMPDEST PUSH1 0x60 PUSH2 0x318 PUSH2 0x201 JUMP JUMPDEST PUSH1 0x1 PUSH1 0x1 PUSH1 0xA0 SHL SUB AND CALLER PUSH1 0x1 PUSH1 0x1 PUSH1 0xA0 SHL SUB AND EQ PUSH2 0x36B JUMPI PUSH1 0x40 MLOAD PUSH32 0x8C379A000000000000000000000000000000000000000000000000000000000 DUP2 MSTORE PUSH1 0x4 ADD PUSH2 0x362 SWAP1 PUSH2 0xB17 JUMP JUMPDEST PUSH1 0x40 MLOAD DUP1 SWAP2 SUB SWAP1 REVERT JUMPDEST PUSH1 0x0 DUP1 DUP2 SLOAD PUSH2 0x379 SWAP1 PUSH2 0xB68 JUMP JUMPDEST SWAP2 SWAP1 POP DUP2 SWAP1 SSTORE POP DUP4 DUP6 PUSH1 0x1 PUSH1 0x1 PUSH1 0xA0 SHL SUB AND PUSH32 0x47D99AD340F52DA66535AFF7E10DA1CEB85A32BCBD9FA1C42314D194545E14D2 DUP6 DUP6 PUSH1 0x40 MLOAD PUSH2 0x3BC SWAP3 SWAP2 SWAP1 PUSH2 0xBA5 JUMP JUMPDEST PUSH1 0x40 MLOAD DUP1 SWAP2 SUB SWAP1 LOG3 PUSH1 0x0 DUP6 PUSH1 0x1 PUSH1 0x1 PUSH1 0xA0 SHL SUB AND DUP6 DUP6 DUP6 PUSH1 0x40 MLOAD PUSH2 0x3E1 SWAP3 SWAP2 SWAP1 PUSH2 0xBCA JUMP JUMPDEST PUSH1 0x0 PUSH1 0x40 MLOAD DUP1 DUP4 SUB DUP2 DUP6 DUP8 GAS CALL SWAP3 POP POP POP RETURNDATASIZE DUP1 PUSH1 0x0 DUP2 EQ PUSH2 0x41E JUMPI PUSH1 0x40 MLOAD SWAP2 POP PUSH1 0x1F NOT PUSH1 0x3F RETURNDATASIZE ADD AND DUP3 ADD PUSH1 0x40 MSTORE RETURNDATASIZE DUP3 MSTORE RETURNDATASIZE PUSH1 0x0 PUSH1 0x20 DUP5 ADD RETURNDATACOPY PUSH2 0x423 JUMP JUMPDEST PUSH1 0x60 SWAP2 POP JUMPDEST POP SWAP3 POP SWAP1 POP DUP1 PUSH2 0x435 JUMPI DUP2 MLOAD PUSH1 0x20 DUP4 ADD REVERT JUMPDEST POP SWAP5 SWAP4 POP POP POP POP JUMP JUMPDEST PUSH1 0x0 DUP1 PUSH1 0x0 PUSH2 0x44B PUSH2 0x4B7 JUMP JUMPDEST SWAP3 POP SWAP3 POP SWAP3 POP SWAP1 SWAP2 SWAP3 JUMP JUMPDEST PUSH1 0x0 DUP1 PUSH1 0x0 PUSH2 0x465 DUP6 DUP6 PUSH2 0x50A JUMP JUMPDEST SWAP1 SWAP3 POP SWAP1 POP PUSH1 0x0 DUP2 PUSH1 0x4 DUP2 GT ISZERO PUSH2 0x47E JUMPI PUSH2 0x47E PUSH2 0xBD7 JUMP JUMPDEST EQ DUP1 ISZERO PUSH2 0x49C JUMPI POP DUP6 PUSH1 0x1 PUSH1 0x1 PUSH1 0xA0 SHL SUB AND DUP3 PUSH1 0x1 PUSH1 0x1 PUSH1 0xA0 SHL SUB AND EQ JUMPDEST DUP1 PUSH2 0x4AD JUMPI POP PUSH2 0x4AD DUP7 DUP7 DUP7 PUSH2 0x54F JUMP JUMPDEST SWAP7 SWAP6 POP POP POP POP POP POP JUMP JUMPDEST PUSH1 0x40 DUP1 MLOAD PUSH1 0x60 DUP1 DUP3 MSTORE PUSH1 0x80 DUP3 ADD SWAP1 SWAP3 MSTORE PUSH1 0x0 SWAP2 DUP3 SWAP2 DUP3 SWAP2 DUP3 SWAP2 SWAP1 PUSH1 0x20 DUP3 ADD DUP2 DUP1 CALLDATASIZE DUP4 CALLDATACOPY ADD SWAP1 POP POP SWAP1 POP PUSH1 0x60 PUSH1 0x4D PUSH1 0x20 DUP4 ADD ADDRESS EXTCODECOPY DUP1 DUP1 PUSH1 0x20 ADD SWAP1 MLOAD DUP2 ADD SWAP1 PUSH2 0x4FE SWAP2 SWAP1 PUSH2 0xAA6 JUMP JUMPDEST SWAP4 POP SWAP4 POP SWAP4 POP POP SWAP1 SWAP2 SWAP3 JUMP JUMPDEST PUSH1 0x0 DUP1 DUP3 MLOAD PUSH1 0x41 SUB PUSH2 0x540 JUMPI PUSH1 0x20 DUP4 ADD MLOAD PUSH1 0x40 DUP5 ADD MLOAD PUSH1 0x60 DUP6 ADD MLOAD PUSH1 0x0 BYTE PUSH2 0x534 DUP8 DUP3 DUP6 DUP6 PUSH2 0x650 JUMP JUMPDEST SWAP5 POP SWAP5 POP POP POP POP PUSH2 0x548 JUMP JUMPDEST POP PUSH1 0x0 SWAP1 POP PUSH1 0x2 JUMPDEST SWAP3 POP SWAP3 SWAP1 POP JUMP JUMPDEST PUSH1 0x0 DUP1 PUSH1 0x0 DUP6 PUSH1 0x1 PUSH1 0x1 PUSH1 0xA0 SHL SUB AND PUSH4 0x1626BA7E PUSH1 0xE0 SHL DUP7 DUP7 PUSH1 0x40 MLOAD PUSH1 0x24 ADD PUSH2 0x579 SWAP3 SWAP2 SWAP1 PUSH2 0xBED JUMP JUMPDEST PUSH1 0x40 DUP1 MLOAD PUSH1 0x1F NOT DUP2 DUP5 SUB ADD DUP2 MSTORE SWAP2 DUP2 MSTORE PUSH1 0x20 DUP3 ADD DUP1 MLOAD PUSH28 0xFFFFFFFFFFFFFFFFFFFFFFFFFFFFFFFFFFFFFFFFFFFFFFFFFFFFFFFF AND PUSH1 0x1 PUSH1 0x1 PUSH1 0xE0 SHL SUB NOT SWAP1 SWAP5 AND SWAP4 SWAP1 SWAP4 OR SWAP1 SWAP3 MSTORE SWAP1 MLOAD PUSH2 0x5CC SWAP2 SWAP1 PUSH2 0xC2F JUMP JUMPDEST PUSH1 0x0 PUSH1 0x40 MLOAD DUP1 DUP4 SUB DUP2 DUP6 GAS STATICCALL SWAP2 POP POP RETURNDATASIZE DUP1 PUSH1 0x0 DUP2 EQ PUSH2 0x607 JUMPI PUSH1 0x40 MLOAD SWAP2 POP PUSH1 0x1F NOT PUSH1 0x3F RETURNDATASIZE ADD AND DUP3 ADD PUSH1 0x40 MSTORE RETURNDATASIZE DUP3 MSTORE RETURNDATASIZE PUSH1 0x0 PUSH1 0x20 DUP5 ADD RETURNDATACOPY PUSH2 0x60C JUMP JUMPDEST PUSH1 0x60 SWAP2 POP JUMPDEST POP SWAP2 POP SWAP2 POP DUP2 DUP1 ISZERO PUSH2 0x620 JUMPI POP PUSH1 0x20 DUP2 MLOAD LT ISZERO JUMPDEST DUP1 ISZERO PUSH2 0x4AD JUMPI POP DUP1 MLOAD PUSH4 0xB135D3F PUSH1 0xE1 SHL SWAP1 PUSH2 0x645 SWAP1 DUP4 ADD PUSH1 0x20 SWAP1 DUP2 ADD SWAP1 DUP5 ADD PUSH2 0xC3B JUMP JUMPDEST EQ SWAP7 SWAP6 POP POP POP POP POP POP JUMP JUMPDEST PUSH1 0x0 DUP1 PUSH32 0x7FFFFFFFFFFFFFFFFFFFFFFFFFFFFFFF5D576E7357A4501DDFE92F46681B20A0 DUP4 GT ISZERO PUSH2 0x687 JUMPI POP PUSH1 0x0 SWAP1 POP PUSH1 0x3 PUSH2 0x6FE JUMP JUMPDEST PUSH1 0x0 PUSH1 0x1 DUP8 DUP8 DUP8 DUP8 PUSH1 0x40 MLOAD PUSH1 0x0 DUP2 MSTORE PUSH1 0x20 ADD PUSH1 0x40 MSTORE PUSH1 0x40 MLOAD PUSH2 0x6AC SWAP5 SWAP4 SWAP3 SWAP2 SWAP1 PUSH2 0xC65 JUMP JUMPDEST PUSH1 0x20 PUSH1 0x40 MLOAD PUSH1 0x20 DUP2 SUB SWAP1 DUP1 DUP5 SUB SWAP1 DUP6 GAS STATICCALL ISZERO DUP1 ISZERO PUSH2 0x6CE JUMPI RETURNDATASIZE PUSH1 0x0 DUP1 RETURNDATACOPY RETURNDATASIZE PUSH1 0x0 REVERT JUMPDEST POP POP PUSH1 0x40 MLOAD PUSH1 0x1F NOT ADD MLOAD SWAP2 POP POP PUSH1 0x1 PUSH1 0x1 PUSH1 0xA0 SHL SUB DUP2 AND PUSH2 0x6F7 JUMPI PUSH1 0x0 PUSH1 0x1 SWAP3 POP SWAP3 POP POP PUSH2 0x6FE JUMP JUMPDEST SWAP2 POP PUSH1 0x0 SWAP1 POP JUMPDEST SWAP5 POP SWAP5 SWAP3 POP POP POP JUMP JUMPDEST PUSH1 0x1 PUSH1 0x1 PUSH1 0xE0 SHL SUB NOT DUP2 AND JUMPDEST DUP2 EQ PUSH2 0x71E JUMPI PUSH1 0x0 DUP1 REVERT JUMPDEST POP JUMP JUMPDEST DUP1 CALLDATALOAD PUSH2 0x1C4 DUP2 PUSH2 0x707 JUMP JUMPDEST PUSH1 0x0 PUSH1 0x20 DUP3 DUP5 SUB SLT ISZERO PUSH2 0x741 JUMPI PUSH2 0x741 PUSH1 0x0 DUP1 REVERT JUMPDEST PUSH1 0x0 PUSH2 0x74D DUP5 DUP5 PUSH2 0x721 JUMP JUMPDEST SWAP5 SWAP4 POP POP POP POP JUMP JUMPDEST DUP1 ISZERO ISZERO JUMPDEST DUP3 MSTORE POP POP JUMP JUMPDEST PUSH1 0x20 DUP2 ADD PUSH2 0x1C4 DUP3 DUP5 PUSH2 0x755 JUMP JUMPDEST DUP1 PUSH2 0x713 JUMP JUMPDEST DUP1 CALLDATALOAD PUSH2 0x1C4 DUP2 PUSH2 0x76D JUMP JUMPDEST PUSH4 0x4E487B71 PUSH1 0xE0 SHL PUSH1 0x0 MSTORE PUSH1 0x41 PUSH1 0x4 MSTORE PUSH1 0x24 PUSH1 0x0 REVERT JUMPDEST PUSH1 0x1F NOT PUSH1 0x1F DUP4 ADD AND DUP2 ADD DUP2 DUP2 LT PUSH8 0xFFFFFFFFFFFFFFFF DUP3 GT OR ISZERO PUSH2 0x7BA JUMPI PUSH2 0x7BA PUSH2 0x77E JUMP JUMPDEST PUSH1 0x40 MSTORE POP POP JUMP JUMPDEST PUSH1 0x0 PUSH2 0x7CC PUSH1 0x40 MLOAD SWAP1 JUMP JUMPDEST SWAP1 POP PUSH2 0x7D8 DUP3 DUP3 PUSH2 0x794 JUMP JUMPDEST SWAP2 SWAP1 POP JUMP JUMPDEST PUSH1 0x0 PUSH8 0xFFFFFFFFFFFFFFFF DUP3 GT ISZERO PUSH2 0x7F7 JUMPI PUSH2 0x7F7 PUSH2 0x77E JUMP JUMPDEST PUSH1 0x1F NOT PUSH1 0x1F DUP4 ADD AND PUSH1 0x20 ADD SWAP3 SWAP2 POP POP JUMP JUMPDEST DUP3 DUP2 DUP4 CALLDATACOPY POP PUSH1 0x0 SWAP2 ADD MSTORE JUMP JUMPDEST PUSH1 0x0 PUSH2 0x827 PUSH2 0x822 DUP5 PUSH2 0x7DD JUMP JUMPDEST PUSH2 0x7C1 JUMP JUMPDEST SWAP1 POP DUP3 DUP2 MSTORE PUSH1 0x20 DUP2 ADD DUP5 DUP5 DUP5 ADD GT ISZERO PUSH2 0x842 JUMPI PUSH2 0x842 PUSH1 0x0 DUP1 REVERT JUMPDEST PUSH2 0x84D DUP5 DUP3 DUP6 PUSH2 0x808 JUMP JUMPDEST POP SWAP4 SWAP3 POP POP POP JUMP JUMPDEST PUSH1 0x0 DUP3 PUSH1 0x1F DUP4 ADD SLT PUSH2 0x869 JUMPI PUSH2 0x869 PUSH1 0x0 DUP1 REVERT JUMPDEST DUP2 CALLDATALOAD PUSH2 0x74D DUP5 DUP3 PUSH1 0x20 DUP7 ADD PUSH2 0x814 JUMP JUMPDEST PUSH1 0x0 DUP1 PUSH1 0x40 DUP4 DUP6 SUB SLT ISZERO PUSH2 0x88F JUMPI PUSH2 0x88F PUSH1 0x0 DUP1 REVERT JUMPDEST PUSH1 0x0 PUSH2 0x89B DUP6 DUP6 PUSH2 0x773 JUMP JUMPDEST SWAP3 POP POP PUSH1 0x20 DUP4 ADD CALLDATALOAD PUSH8 0xFFFFFFFFFFFFFFFF DUP2 GT ISZERO PUSH2 0x8BB JUMPI PUSH2 0x8BB PUSH1 0x0 DUP1 REVERT JUMPDEST PUSH2 0x8C7 DUP6 DUP3 DUP7 ADD PUSH2 0x855 JUMP JUMPDEST SWAP2 POP POP SWAP3 POP SWAP3 SWAP1 POP JUMP JUMPDEST PUSH1 0x1 PUSH1 0x1 PUSH1 0xE0 SHL SUB NOT DUP2 AND PUSH2 0x759 JUMP JUMPDEST PUSH1 0x20 DUP2 ADD PUSH2 0x1C4 DUP3 DUP5 PUSH2 0x8D1 JUMP JUMPDEST PUSH1 0x0 PUSH1 0x1 PUSH1 0x1 PUSH1 0xA0 SHL SUB DUP3 AND PUSH2 0x1C4 JUMP JUMPDEST PUSH2 0x759 DUP2 PUSH2 0x8EF JUMP JUMPDEST PUSH1 0x20 DUP2 ADD PUSH2 0x1C4 DUP3 DUP5 PUSH2 0x900 JUMP JUMPDEST PUSH2 0x713 DUP2 PUSH2 0x8EF JUMP JUMPDEST DUP1 CALLDATALOAD PUSH2 0x1C4 DUP2 PUSH2 0x917 JUMP JUMPDEST PUSH1 0x0 DUP1 DUP4 PUSH1 0x1F DUP5 ADD SLT PUSH2 0x940 JUMPI PUSH2 0x940 PUSH1 0x0 DUP1 REVERT JUMPDEST POP DUP2 CALLDATALOAD PUSH8 0xFFFFFFFFFFFFFFFF DUP2 GT ISZERO PUSH2 0x95B JUMPI PUSH2 0x95B PUSH1 0x0 DUP1 REVERT JUMPDEST PUSH1 0x20 DUP4 ADD SWAP2 POP DUP4 PUSH1 0x1 DUP3 MUL DUP4 ADD GT ISZERO PUSH2 0x548 JUMPI PUSH2 0x548 PUSH1 0x0 DUP1 REVERT JUMPDEST PUSH1 0x0 DUP1 PUSH1 0x0 DUP1 PUSH1 0x60 DUP6 DUP8 SUB SLT ISZERO PUSH2 0x98F JUMPI PUSH2 0x98F PUSH1 0x0 DUP1 REVERT JUMPDEST PUSH1 0x0 PUSH2 0x99B DUP8 DUP8 PUSH2 0x920 JUMP JUMPDEST SWAP5 POP POP PUSH1 0x20 PUSH2 0x9AC DUP8 DUP3 DUP9 ADD PUSH2 0x773 JUMP JUMPDEST SWAP4 POP POP PUSH1 0x40 DUP6 ADD CALLDATALOAD PUSH8 0xFFFFFFFFFFFFFFFF DUP2 GT ISZERO PUSH2 0x9CC JUMPI PUSH2 0x9CC PUSH1 0x0 DUP1 REVERT JUMPDEST PUSH2 0x9D8 DUP8 DUP3 DUP9 ADD PUSH2 0x92B JUMP JUMPDEST SWAP6 SWAP9 SWAP5 SWAP8 POP SWAP6 POP POP POP POP JUMP JUMPDEST PUSH1 0x0 JUMPDEST DUP4 DUP2 LT ISZERO PUSH2 0x9FF JUMPI DUP2 DUP2 ADD MLOAD DUP4 DUP3 ADD MSTORE PUSH1 0x20 ADD PUSH2 0x9E7 JUMP JUMPDEST POP POP PUSH1 0x0 SWAP2 ADD MSTORE JUMP JUMPDEST PUSH1 0x0 PUSH2 0xA12 DUP3 MLOAD SWAP1 JUMP JUMPDEST DUP1 DUP5 MSTORE PUSH1 0x20 DUP5 ADD SWAP4 POP PUSH2 0xA29 DUP2 DUP6 PUSH1 0x20 DUP7 ADD PUSH2 0x9E4 JUMP JUMPDEST PUSH1 0x1F NOT PUSH1 0x1F DUP3 ADD AND JUMPDEST SWAP1 SWAP4 ADD SWAP4 SWAP3 POP POP POP JUMP JUMPDEST PUSH1 0x20 DUP1 DUP3 MSTORE DUP2 ADD PUSH2 0xA4D DUP2 DUP5 PUSH2 0xA08 JUMP JUMPDEST SWAP4 SWAP3 POP POP POP JUMP JUMPDEST DUP1 PUSH2 0x759 JUMP JUMPDEST PUSH1 0x20 DUP2 ADD PUSH2 0x1C4 DUP3 DUP5 PUSH2 0xA54 JUMP JUMPDEST PUSH1 0x60 DUP2 ADD PUSH2 0xA76 DUP3 DUP7 PUSH2 0xA54 JUMP JUMPDEST PUSH2 0xA83 PUSH1 0x20 DUP4 ADD DUP6 PUSH2 0x900 JUMP JUMPDEST PUSH2 0x74D PUSH1 0x40 DUP4 ADD DUP5 PUSH2 0xA54 JUMP JUMPDEST DUP1 MLOAD PUSH2 0x1C4 DUP2 PUSH2 0x76D JUMP JUMPDEST DUP1 MLOAD PUSH2 0x1C4 DUP2 PUSH2 0x917 JUMP JUMPDEST PUSH1 0x0 DUP1 PUSH1 0x0 PUSH1 0x60 DUP5 DUP7 SUB SLT ISZERO PUSH2 0xABE JUMPI PUSH2 0xABE PUSH1 0x0 DUP1 REVERT JUMPDEST PUSH1 0x0 PUSH2 0xACA DUP7 DUP7 PUSH2 0xA90 JUMP JUMPDEST SWAP4 POP POP PUSH1 0x20 PUSH2 0xADB DUP7 DUP3 DUP8 ADD PUSH2 0xA9B JUMP JUMPDEST SWAP3 POP POP PUSH1 0x40 PUSH2 0xAEC DUP7 DUP3 DUP8 ADD PUSH2 0xA90 JUMP JUMPDEST SWAP2 POP POP SWAP3 POP SWAP3 POP SWAP3 JUMP JUMPDEST PUSH1 0x0 PUSH1 0x20 DUP3 DUP5 SUB SLT ISZERO PUSH2 0xB0B JUMPI PUSH2 0xB0B PUSH1 0x0 DUP1 REVERT JUMPDEST PUSH1 0x0 PUSH2 0x74D DUP5 DUP5 PUSH2 0xA9B JUMP JUMPDEST PUSH1 0x20 DUP1 DUP3 MSTORE DUP2 ADD PUSH2 0x1C4 DUP2 PUSH1 0xF DUP2 MSTORE PUSH32 0x4E6F7420746F6B656E206F776E65720000000000000000000000000000000000 PUSH1 0x20 DUP3 ADD MSTORE PUSH1 0x40 ADD SWAP1 JUMP JUMPDEST PUSH4 0x4E487B71 PUSH1 0xE0 SHL PUSH1 0x0 MSTORE PUSH1 0x11 PUSH1 0x4 MSTORE PUSH1 0x24 PUSH1 0x0 REVERT JUMPDEST PUSH1 0x0 PUSH1 0x0 NOT DUP3 SUB PUSH2 0xB7B JUMPI PUSH2 0xB7B PUSH2 0xB52 JUMP JUMPDEST POP PUSH1 0x1 ADD SWAP1 JUMP JUMPDEST DUP2 DUP4 MSTORE PUSH1 0x0 PUSH1 0x20 DUP5 ADD SWAP4 POP PUSH2 0xB98 DUP4 DUP6 DUP5 PUSH2 0x808 JUMP JUMPDEST PUSH1 0x1F NOT PUSH1 0x1F DUP5 ADD AND PUSH2 0xA32 JUMP JUMPDEST PUSH1 0x20 DUP1 DUP3 MSTORE DUP2 ADD PUSH2 0x74D DUP2 DUP5 DUP7 PUSH2 0xB82 JUMP JUMPDEST PUSH1 0x0 PUSH2 0xBC4 DUP4 DUP6 DUP5 PUSH2 0x808 JUMP JUMPDEST POP POP ADD SWAP1 JUMP JUMPDEST PUSH1 0x0 PUSH2 0x74D DUP3 DUP5 DUP7 PUSH2 0xBB7 JUMP JUMPDEST PUSH4 0x4E487B71 PUSH1 0xE0 SHL PUSH1 0x0 MSTORE PUSH1 0x21 PUSH1 0x4 MSTORE PUSH1 0x24 PUSH1 0x0 REVERT JUMPDEST PUSH1 0x40 DUP2 ADD PUSH2 0xBFB DUP3 DUP6 PUSH2 0xA54 JUMP JUMPDEST DUP2 DUP2 SUB PUSH1 0x20 DUP4 ADD MSTORE PUSH2 0x74D DUP2 DUP5 PUSH2 0xA08 JUMP JUMPDEST PUSH1 0x0 PUSH2 0xC17 DUP3 MLOAD SWAP1 JUMP JUMPDEST PUSH2 0xC25 DUP2 DUP6 PUSH1 0x20 DUP7 ADD PUSH2 0x9E4 JUMP JUMPDEST SWAP3 SWAP1 SWAP3 ADD SWAP3 SWAP2 POP POP JUMP JUMPDEST PUSH1 0x0 PUSH2 0xA4D DUP3 DUP5 PUSH2 0xC0D JUMP JUMPDEST PUSH1 0x0 PUSH1 0x20 DUP3 DUP5 SUB SLT ISZERO PUSH2 0xC50 JUMPI PUSH2 0xC50 PUSH1 0x0 DUP1 REVERT JUMPDEST PUSH1 0x0 PUSH2 0x74D DUP5 DUP5 PUSH2 0xA90 JUMP JUMPDEST PUSH1 0xFF DUP2 AND PUSH2 0x759 JUMP JUMPDEST PUSH1 0x80 DUP2 ADD PUSH2 0xC73 DUP3 DUP8 PUSH2 0xA54 JUMP JUMPDEST PUSH2 0xC80 PUSH1 0x20 DUP4 ADD DUP7 PUSH2 0xC5C JUMP JUMPDEST PUSH2 0xC8D PUSH1 0x40 DUP4 ADD DUP6 PUSH2 0xA54 JUMP JUMPDEST PUSH2 0xC9A PUSH1 0x60 DUP4 ADD DUP5 PUSH2 0xA54 JUMP JUMPDEST SWAP6 SWAP5 POP POP POP POP POP JUMP INVALID LOG2 PUSH5 0x6970667358 0x22 SLT KECCAK256 0xAB RETURNDATASIZE LOG3 NUMBER 0xB9 ORIGIN EQ MLOAD 0xC 0xEB 0xE5 0xEF ISZERO 0xF6 CALLDATASIZE MOD 0xBE PUSH23 0xE09EF41EF093BE9396FEB5B5C06D64736F6C6343000813 STOP CALLER "},"methodIdentifiers":{"executeCall(address,uint256,bytes)":"9e5d4c49","isValidSignature(bytes32,bytes)":"1626ba7e","nonce()":"affed0e0","owner()":"8da5cb5b","supportsInterface(bytes4)":"01ffc9a7","token()":"fc0c546a"}}}}}