{"contracts/ERC6551Registry.sol":{"ERC6551Registry":{"abi":[{"inputs":[],"name":"InitializationFailed","type":"error"},{"anonymous":false,"inputs":[{"indexed":false,"internalType":"address","name":"account","type":"address"},{"indexed":false,"internalType":"address","name":"implementation","type":"address"},{"indexed":false,"internalType":"uint256","name":"chainId","type":"uint256"},{"indexed":false,"internalType":"address","name":"tokenContract","type":"address"},{"indexed":false,"internalType":"uint256","name":"tokenId","type":"uint256"},{"indexed":false,"internalType":"uint256","name":"salt","type":"uint256"}],"name":"AccountCreated","type":"event"},{"inputs":[{"internalType":"address","name":"implementation","type":"address"},{"internalType":"uint256","name":"chainId","type":"uint256"},{"internalType":"address","name":"tokenContract","type":"address"},{"internalType":"uint256","name":"tokenId","type":"uint256"},{"internalType":"uint256","name":"salt","type":"uint256"}],"name":"account","outputs":[{"internalType":"address","name":"","type":"address"}],"stateMutability":"view","type":"function"},{"inputs":[{"internalType":"address","name":"implementation","type":"address"},{"internalType":"uint256","name":"chainId","type":"uint256"},{"internalType":"address","name":"tokenContract","type":"address"},{"internalType":"uint256","name":"tokenId","type":"uint256"},{"internalType":"uint256","name":"salt","type":"uint256"},{"internalType":"bytes","name":"initData","type":"bytes"}],"name":"createAccount","outputs":[{"internalType":"address","name":"","type":"address"}],"stateMutability":"nonpayable","type":"function"}],"evm":{"bytecode":{"linkReferences":{},"object":"608060405234801561001057600080fd5b506107a0806100206000396000f3fe608060405234801561001057600080fd5b50600436106100365760003560e01c80635e9bc5361461003b578063da7323b314610064575b600080fd5b61004e610049366004610377565b610077565b60405161005b91906103fe565b60405180910390f35b61004e61007236600461045e565b6100a8565b6000806100878787878787610204565b8051602090910120905061009b8382610256565b9150505b95945050505050565b6000806100b88989898989610204565b905060006100d08660001b8380519060200120610256565b905073ffffffffffffffffffffffffffffffffffffffff81163b156100f85791506101f99050565b6101046000878461026c565b905083156101b45760008173ffffffffffffffffffffffffffffffffffffffff168686604051610135929190610528565b6000604051808303816000865af19150503d8060008114610172576040519150601f19603f3d011682016040523d82523d6000602084013e610177565b606091505b50509050806101b2576040517f19b991a800000000000000000000000000000000000000000000000000000000815260040160405180910390fd5b505b7f07fba7bba1191da7ee1155dcfa0030701c9c9a9cc34a93b991fc6fd0c9268d8f818b8b8b8b8b6040516101ed96959493929190610543565b60405180910390a19150505b979650505050505050565b6060858286868660405160200161021e9493929190610592565b60408051601f198184030181529082905261023c9291602001610635565b604051602081830303815290604052905095945050505050565b60006102638383306102fd565b90505b92915050565b6000834710156102975760405162461bcd60e51b815260040161028e906106d4565b60405180910390fd5b81516000036102b85760405162461bcd60e51b815260040161028e90610716565b8282516020840186f5905073ffffffffffffffffffffffffffffffffffffffff81166102f65760405162461bcd60e51b815260040161028e9061075a565b9392505050565b6000604051836040820152846020820152828152600b810160ff81536055902095945050505050565b600073ffffffffffffffffffffffffffffffffffffffff8216610266565b61034d81610326565b811461035857600080fd5b50565b803561026681610344565b8061034d565b803561026681610366565b600080600080600060a0868803121561039257610392600080fd5b600061039e888861035b565b95505060206103af8882890161036c565b94505060406103c08882890161035b565b93505060606103d18882890161036c565b92505060806103e28882890161036c565b9150509295509295909350565b6103f881610326565b82525050565b6020810161026682846103ef565b60008083601f84011261042157610421600080fd5b50813567ffffffffffffffff81111561043c5761043c600080fd5b60208301915083600182028301111561045757610457600080fd5b9250929050565b600080600080600080600060c0888a03121561047c5761047c600080fd5b60006104888a8a61035b565b97505060206104998a828b0161036c565b96505060406104aa8a828b0161035b565b95505060606104bb8a828b0161036c565b94505060806104cc8a828b0161036c565b93505060a088013567ffffffffffffffff8111156104ec576104ec600080fd5b6104f88a828b0161040c565b925092505092959891949750929550565b82818337506000910152565b6000610522838584610509565b50500190565b6000610535828486610515565b949350505050565b806103f8565b60c0810161055182896103ef565b61055e60208301886103ef565b61056b604083018761053d565b61057860608301866103ef565b610585608083018561053d565b6101f960a083018461053d565b608081016105a0828761053d565b6105ad602083018661053d565b6105ba60408301856103ef565b61009f606083018461053d565b60006102668260601b90565b6000610266826105c7565b6103f86105ea82610326565b6105d3565b60005b8381101561060a5781810151838201526020016105f2565b50506000910152565b600061061d825190565b61062b8185602086016105ef565b9290920192915050565b7f3d60ad80600a3d3981f3363d3d373d3d3d363d730000000000000000000000008152601401600061066782856105de565b7f5af43d82803e903d91602b57fd5bf3000000000000000000000000000000000060148301526023909101906105358284610613565b601d81526000602082017f437265617465323a20696e73756666696369656e742062616c616e6365000000815291505b5060200190565b602080825281016102668161069d565b60208082527f437265617465323a2062797465636f6465206c656e677468206973207a65726f910190815260006106cd565b60208082528101610266816106e4565b601981526000602082017f437265617465323a204661696c6564206f6e206465706c6f7900000000000000815291506106cd565b602080825281016102668161072656fea2646970667358221220df8110a28c0dbaa5b7081dcda20033fad854c1d5e7b5bb6df76af28e972a997f64736f6c63430008130033","opcodes":"PUSH1 0x80 PUSH1 0x40 MSTORE CALLVALUE DUP1 ISZERO PUSH2 0x10 JUMPI PUSH1 0x0 DUP1 REVERT JUMPDEST POP PUSH2 0x7A0 DUP1 PUSH2 0x20 PUSH1 0x0 CODECOPY PUSH1 0x0 RETURN INVALID PUSH1 0x80 PUSH1 0x40 MSTORE CALLVALUE DUP1 ISZERO PUSH2 0x10 JUMPI PUSH1 0x0 DUP1 REVERT JUMPDEST POP PUSH1 0x4 CALLDATASIZE LT PUSH2 0x36 JUMPI PUSH1 0x0 CALLDATALOAD PUSH1 0xE0 SHR DUP1 PUSH4 0x5E9BC536 EQ PUSH2 0x3B JUMPI DUP1 PUSH4 0xDA7323B3 EQ PUSH2 0x64 JUMPI JUMPDEST PUSH1 0x0 DUP1 REVERT JUMPDEST PUSH2 0x4E PUSH2 0x49 CALLDATASIZE PUSH1 0x4 PUSH2 0x377 JUMP JUMPDEST PUSH2 0x77 JUMP JUMPDEST PUSH1 0x40 MLOAD PUSH2 0x5B SWAP2 SWAP1 PUSH2 0x3FE JUMP JUMPDEST PUSH1 0x40 MLOAD DUP1 SWAP2 SUB SWAP1 RETURN JUMPDEST PUSH2 0x4E PUSH2 0x72 CALLDATASIZE PUSH1 0x4 PUSH2 0x45E JUMP JUMPDEST PUSH2 0xA8 JUMP JUMPDEST PUSH1 0x0 DUP1 PUSH2 0x87 DUP8 DUP8 DUP8 DUP8 DUP8 PUSH2 0x204 JUMP JUMPDEST DUP1 MLOAD PUSH1 0x20 SWAP1 SWAP2 ADD KECCAK256 SWAP1 POP PUSH2 0x9B DUP4 DUP3 PUSH2 0x256 JUMP JUMPDEST SWAP2 POP POP JUMPDEST SWAP6 SWAP5 POP POP POP POP POP JUMP JUMPDEST PUSH1 0x0 DUP1 PUSH2 0xB8 DUP10 DUP10 DUP10 DUP10 DUP10 PUSH2 0x204 JUMP JUMPDEST SWAP1 POP PUSH1 0x0 PUSH2 0xD0 DUP7 PUSH1 0x0 SHL DUP4 DUP1 MLOAD SWAP1 PUSH1 0x20 ADD KECCAK256 PUSH2 0x256 JUMP JUMPDEST SWAP1 POP PUSH20 0xFFFFFFFFFFFFFFFFFFFFFFFFFFFFFFFFFFFFFFFF DUP2 AND EXTCODESIZE ISZERO PUSH2 0xF8 JUMPI SWAP2 POP PUSH2 0x1F9 SWAP1 POP JUMP JUMPDEST PUSH2 0x104 PUSH1 0x0 DUP8 DUP5 PUSH2 0x26C JUMP JUMPDEST SWAP1 POP DUP4 ISZERO PUSH2 0x1B4 JUMPI PUSH1 0x0 DUP2 PUSH20 0xFFFFFFFFFFFFFFFFFFFFFFFFFFFFFFFFFFFFFFFF AND DUP7 DUP7 PUSH1 0x40 MLOAD PUSH2 0x135 SWAP3 SWAP2 SWAP1 PUSH2 0x528 JUMP JUMPDEST PUSH1 0x0 PUSH1 0x40 MLOAD DUP1 DUP4 SUB DUP2 PUSH1 0x0 DUP7 GAS CALL SWAP2 POP POP RETURNDATASIZE DUP1 PUSH1 0x0 DUP2 EQ PUSH2 0x172 JUMPI PUSH1 0x40 MLOAD SWAP2 POP PUSH1 0x1F NOT PUSH1 0x3F RETURNDATASIZE ADD AND DUP3 ADD PUSH1 0x40 MSTORE RETURNDATASIZE DUP3 MSTORE RETURNDATASIZE PUSH1 0x0 PUSH1 0x20 DUP5 ADD RETURNDATACOPY PUSH2 0x177 JUMP JUMPDEST PUSH1 0x60 SWAP2 POP JUMPDEST POP POP SWAP1 POP DUP1 PUSH2 0x1B2 JUMPI PUSH1 0x40 MLOAD PUSH32 0x19B991A800000000000000000000000000000000000000000000000000000000 DUP2 MSTORE PUSH1 0x4 ADD PUSH1 0x40 MLOAD DUP1 SWAP2 SUB SWAP1 REVERT JUMPDEST POP JUMPDEST PUSH32 0x7FBA7BBA1191DA7EE1155DCFA0030701C9C9A9CC34A93B991FC6FD0C9268D8F DUP2 DUP12 DUP12 DUP12 DUP12 DUP12 PUSH1 0x40 MLOAD PUSH2 0x1ED SWAP7 SWAP6 SWAP5 SWAP4 SWAP3 SWAP2 SWAP1 PUSH2 0x543 JUMP JUMPDEST PUSH1 0x40 MLOAD DUP1 SWAP2 SUB SWAP1 LOG1 SWAP2 POP POP JUMPDEST SWAP8 SWAP7 POP POP POP POP POP POP POP JUMP JUMPDEST PUSH1 0x60 DUP6 DUP3 DUP7 DUP7 DUP7 PUSH1 0x40 MLOAD PUSH1 0x20 ADD PUSH2 0x21E SWAP5 SWAP4 SWAP3 SWAP2 SWAP1 PUSH2 0x592 JUMP JUMPDEST PUSH1 0x40 DUP1 MLOAD PUSH1 0x1F NOT DUP2 DUP5 SUB ADD DUP2 MSTORE SWAP1 DUP3 SWAP1 MSTORE PUSH2 0x23C SWAP3 SWAP2 PUSH1 0x20 ADD PUSH2 0x635 JUMP JUMPDEST PUSH1 0x40 MLOAD PUSH1 0x20 DUP2 DUP4 SUB SUB DUP2 MSTORE SWAP1 PUSH1 0x40 MSTORE SWAP1 POP SWAP6 SWAP5 POP POP POP POP POP JUMP JUMPDEST PUSH1 0x0 PUSH2 0x263 DUP4 DUP4 ADDRESS PUSH2 0x2FD JUMP JUMPDEST SWAP1 POP JUMPDEST SWAP3 SWAP2 POP POP JUMP JUMPDEST PUSH1 0x0 DUP4 SELFBALANCE LT ISZERO PUSH2 0x297 JUMPI PUSH1 0x40 MLOAD PUSH3 0x461BCD PUSH1 0xE5 SHL DUP2 MSTORE PUSH1 0x4 ADD PUSH2 0x28E SWAP1 PUSH2 0x6D4 JUMP JUMPDEST PUSH1 0x40 MLOAD DUP1 SWAP2 SUB SWAP1 REVERT JUMPDEST DUP2 MLOAD PUSH1 0x0 SUB PUSH2 0x2B8 JUMPI PUSH1 0x40 MLOAD PUSH3 0x461BCD PUSH1 0xE5 SHL DUP2 MSTORE PUSH1 0x4 ADD PUSH2 0x28E SWAP1 PUSH2 0x716 JUMP JUMPDEST DUP3 DUP3 MLOAD PUSH1 0x20 DUP5 ADD DUP7 CREATE2 SWAP1 POP PUSH20 0xFFFFFFFFFFFFFFFFFFFFFFFFFFFFFFFFFFFFFFFF DUP2 AND PUSH2 0x2F6 JUMPI PUSH1 0x40 MLOAD PUSH3 0x461BCD PUSH1 0xE5 SHL DUP2 MSTORE PUSH1 0x4 ADD PUSH2 0x28E SWAP1 PUSH2 0x75A JUMP JUMPDEST SWAP4 SWAP3 POP POP POP JUMP JUMPDEST PUSH1 0x0 PUSH1 0x40 MLOAD DUP4 PUSH1 0x40 DUP3 ADD MSTORE DUP5 PUSH1 0x20 DUP3 ADD MSTORE DUP3 DUP2 MSTORE PUSH1 0xB DUP2 ADD PUSH1 0xFF DUP2 MSTORE8 PUSH1 0x55 SWAP1 KECCAK256 SWAP6 SWAP5 POP POP POP POP POP JUMP JUMPDEST PUSH1 0x0 PUSH20 0xFFFFFFFFFFFFFFFFFFFFFFFFFFFFFFFFFFFFFFFF DUP3 AND PUSH2 0x266 JUMP JUMPDEST PUSH2 0x34D DUP2 PUSH2 0x326 JUMP JUMPDEST DUP2 EQ PUSH2 0x358 JUMPI PUSH1 0x0 DUP1 REVERT JUMPDEST POP JUMP JUMPDEST DUP1 CALLDATALOAD PUSH2 0x266 DUP2 PUSH2 0x344 JUMP JUMPDEST DUP1 PUSH2 0x34D JUMP JUMPDEST DUP1 CALLDATALOAD PUSH2 0x266 DUP2 PUSH2 0x366 JUMP JUMPDEST PUSH1 0x0 DUP1 PUSH1 0x0 DUP1 PUSH1 0x0 PUSH1 0xA0 DUP7 DUP9 SUB SLT ISZERO PUSH2 0x392 JUMPI PUSH2 0x392 PUSH1 0x0 DUP1 REVERT JUMPDEST PUSH1 0x0 PUSH2 0x39E DUP9 DUP9 PUSH2 0x35B JUMP JUMPDEST SWAP6 POP POP PUSH1 0x20 PUSH2 0x3AF DUP9 DUP3 DUP10 ADD PUSH2 0x36C JUMP JUMPDEST SWAP5 POP POP PUSH1 0x40 PUSH2 0x3C0 DUP9 DUP3 DUP10 ADD PUSH2 0x35B JUMP JUMPDEST SWAP4 POP POP PUSH1 0x60 PUSH2 0x3D1 DUP9 DUP3 DUP10 ADD PUSH2 0x36C JUMP JUMPDEST SWAP3 POP POP PUSH1 0x80 PUSH2 0x3E2 DUP9 DUP3 DUP10 ADD PUSH2 0x36C JUMP JUMPDEST SWAP2 POP POP SWAP3 SWAP6 POP SWAP3 SWAP6 SWAP1 SWAP4 POP JUMP JUMPDEST PUSH2 0x3F8 DUP2 PUSH2 0x326 JUMP JUMPDEST DUP3 MSTORE POP POP JUMP JUMPDEST PUSH1 0x20 DUP2 ADD PUSH2 0x266 DUP3 DUP5 PUSH2 0x3EF JUMP JUMPDEST PUSH1 0x0 DUP1 DUP4 PUSH1 0x1F DUP5 ADD SLT PUSH2 0x421 JUMPI PUSH2 0x421 PUSH1 0x0 DUP1 REVERT JUMPDEST POP DUP2 CALLDATALOAD PUSH8 0xFFFFFFFFFFFFFFFF DUP2 GT ISZERO PUSH2 0x43C JUMPI PUSH2 0x43C PUSH1 0x0 DUP1 REVERT JUMPDEST PUSH1 0x20 DUP4 ADD SWAP2 POP DUP4 PUSH1 0x1 DUP3 MUL DUP4 ADD GT ISZERO PUSH2 0x457 JUMPI PUSH2 0x457 PUSH1 0x0 DUP1 REVERT JUMPDEST SWAP3 POP SWAP3 SWAP1 POP JUMP JUMPDEST PUSH1 0x0 DUP1 PUSH1 0x0 DUP1 PUSH1 0x0 DUP1 PUSH1 0x0 PUSH1 0xC0 DUP9 DUP11 SUB SLT ISZERO PUSH2 0x47C JUMPI PUSH2 0x47C PUSH1 0x0 DUP1 REVERT JUMPDEST PUSH1 0x0 PUSH2 0x488 DUP11 DUP11 PUSH2 0x35B JUMP JUMPDEST SWAP8 POP POP PUSH1 0x20 PUSH2 0x499 DUP11 DUP3 DUP12 ADD PUSH2 0x36C JUMP JUMPDEST SWAP7 POP POP PUSH1 0x40 PUSH2 0x4AA DUP11 DUP3 DUP12 ADD PUSH2 0x35B JUMP JUMPDEST SWAP6 POP POP PUSH1 0x60 PUSH2 0x4BB DUP11 DUP3 DUP12 ADD PUSH2 0x36C JUMP JUMPDEST SWAP5 POP POP PUSH1 0x80 PUSH2 0x4CC DUP11 DUP3 DUP12 ADD PUSH2 0x36C JUMP JUMPDEST SWAP4 POP POP PUSH1 0xA0 DUP9 ADD CALLDATALOAD PUSH8 0xFFFFFFFFFFFFFFFF DUP2 GT ISZERO PUSH2 0x4EC JUMPI PUSH2 0x4EC PUSH1 0x0 DUP1 REVERT JUMPDEST PUSH2 0x4F8 DUP11 DUP3 DUP12 ADD PUSH2 0x40C JUMP JUMPDEST SWAP3 POP SWAP3 POP POP SWAP3 SWAP6 SWAP9 SWAP2 SWAP5 SWAP8 POP SWAP3 SWAP6 POP JUMP JUMPDEST DUP3 DUP2 DUP4 CALLDATACOPY POP PUSH1 0x0 SWAP2 ADD MSTORE JUMP JUMPDEST PUSH1 0x0 PUSH2 0x522 DUP4 DUP6 DUP5 PUSH2 0x509 JUMP JUMPDEST POP POP ADD SWAP1 JUMP JUMPDEST PUSH1 0x0 PUSH2 0x535 DUP3 DUP5 DUP7 PUSH2 0x515 JUMP JUMPDEST SWAP5 SWAP4 POP POP POP POP JUMP JUMPDEST DUP1 PUSH2 0x3F8 JUMP JUMPDEST PUSH1 0xC0 DUP2 ADD PUSH2 0x551 DUP3 DUP10 PUSH2 0x3EF JUMP JUMPDEST PUSH2 0x55E PUSH1 0x20 DUP4 ADD DUP9 PUSH2 0x3EF JUMP JUMPDEST PUSH2 0x56B PUSH1 0x40 DUP4 ADD DUP8 PUSH2 0x53D JUMP JUMPDEST PUSH2 0x578 PUSH1 0x60 DUP4 ADD DUP7 PUSH2 0x3EF JUMP JUMPDEST PUSH2 0x585 PUSH1 0x80 DUP4 ADD DUP6 PUSH2 0x53D JUMP JUMPDEST PUSH2 0x1F9 PUSH1 0xA0 DUP4 ADD DUP5 PUSH2 0x53D JUMP JUMPDEST PUSH1 0x80 DUP2 ADD PUSH2 0x5A0 DUP3 DUP8 PUSH2 0x53D JUMP JUMPDEST PUSH2 0x5AD PUSH1 0x20 DUP4 ADD DUP7 PUSH2 0x53D JUMP JUMPDEST PUSH2 0x5BA PUSH1 0x40 DUP4 ADD DUP6 PUSH2 0x3EF JUMP JUMPDEST PUSH2 0x9F PUSH1 0x60 DUP4 ADD DUP5 PUSH2 0x53D JUMP JUMPDEST PUSH1 0x0 PUSH2 0x266 DUP3 PUSH1 0x60 SHL SWAP1 JUMP JUMPDEST PUSH1 0x0 PUSH2 0x266 DUP3 PUSH2 0x5C7 JUMP JUMPDEST PUSH2 0x3F8 PUSH2 0x5EA DUP3 PUSH2 0x326 JUMP JUMPDEST PUSH2 0x5D3 JUMP JUMPDEST PUSH1 0x0 JUMPDEST DUP4 DUP2 LT ISZERO PUSH2 0x60A JUMPI DUP2 DUP2 ADD MLOAD DUP4 DUP3 ADD MSTORE PUSH1 0x20 ADD PUSH2 0x5F2 JUMP JUMPDEST POP POP PUSH1 0x0 SWAP2 ADD MSTORE JUMP JUMPDEST PUSH1 0x0 PUSH2 0x61D DUP3 MLOAD SWAP1 JUMP JUMPDEST PUSH2 0x62B DUP2 DUP6 PUSH1 0x20 DUP7 ADD PUSH2 0x5EF JUMP JUMPDEST SWAP3 SWAP1 SWAP3 ADD SWAP3 SWAP2 POP POP JUMP JUMPDEST PUSH32 0x3D60AD80600A3D3981F3363D3D373D3D3D363D73000000000000000000000000 DUP2 MSTORE PUSH1 0x14 ADD PUSH1 0x0 PUSH2 0x667 DUP3 DUP6 PUSH2 0x5DE JUMP JUMPDEST PUSH32 0x5AF43D82803E903D91602B57FD5BF30000000000000000000000000000000000 PUSH1 0x14 DUP4 ADD MSTORE PUSH1 0x23 SWAP1 SWAP2 ADD SWAP1 PUSH2 0x535 DUP3 DUP5 PUSH2 0x613 JUMP JUMPDEST PUSH1 0x1D DUP2 MSTORE PUSH1 0x0 PUSH1 0x20 DUP3 ADD PUSH32 0x437265617465323A20696E73756666696369656E742062616C616E6365000000 DUP2 MSTORE SWAP2 POP JUMPDEST POP PUSH1 0x20 ADD SWAP1 JUMP JUMPDEST PUSH1 0x20 DUP1 DUP3 MSTORE DUP2 ADD PUSH2 0x266 DUP2 PUSH2 0x69D JUMP JUMPDEST PUSH1 0x20 DUP1 DUP3 MSTORE PUSH32 0x437265617465323A2062797465636F6465206C656E677468206973207A65726F SWAP2 ADD SWAP1 DUP2 MSTORE PUSH1 0x0 PUSH2 0x6CD JUMP JUMPDEST PUSH1 0x20 DUP1 DUP3 MSTORE DUP2 ADD PUSH2 0x266 DUP2 PUSH2 0x6E4 JUMP JUMPDEST PUSH1 0x19 DUP2 MSTORE PUSH1 0x0 PUSH1 0x20 DUP3 ADD PUSH32 0x437265617465323A204661696C6564206F6E206465706C6F7900000000000000 DUP2 MSTORE SWAP2 POP PUSH2 0x6CD JUMP JUMPDEST PUSH1 0x20 DUP1 DUP3 MSTORE DUP2 ADD PUSH2 0x266 DUP2 PUSH2 0x726 JUMP INVALID LOG2 PUSH5 0x6970667358 0x22 SLT KECCAK256 0xDF DUP2 LT LOG2 DUP13 0xD 0xBA 0xA5 0xB7 ADDMOD SAR 0xCD LOG2 STOP CALLER STATICCALL 0xD8 SLOAD 0xC1 0xD5 0xE7 0xB5 0xBB PUSH14 0xF76AF28E972A997F64736F6C6343 STOP ADDMOD SGT STOP CALLER "},"methodIdentifiers":{"account(address,uint256,address,uint256,uint256)":"5e9bc536","createAccount(address,uint256,address,uint256,uint256,bytes)":"da7323b3"}}}}}