{
  "_format": "hh-sol-artifact-1",
  "contractName": "ERC6551Registry",
  "sourceName": "contracts/ERC6551Registry.sol",
  "abi": [
    {
      "inputs": [],
      "name": "InitializationFailed",
      "type": "error"
    },
    {
      "anonymous": false,
      "inputs": [
        {
          "indexed": false,
          "internalType": "address",
          "name": "account",
          "type": "address"
        },
        {
          "indexed": false,
          "internalType": "address",
          "name": "implementation",
          "type": "address"
        },
        {
          "indexed": false,
          "internalType": "uint256",
          "name": "chainId",
          "type": "uint256"
        },
        {
          "indexed": false,
          "internalType": "address",
          "name": "tokenContract",
          "type": "address"
        },
        {
          "indexed": false,
          "internalType": "uint256",
          "name": "tokenId",
          "type": "uint256"
        },
        {
          "indexed": false,
          "internalType": "uint256",
          "name": "salt",
          "type": "uint256"
        }
      ],
      "name": "AccountCreated",
      "type": "event"
    },
    {
      "inputs": [
        {
          "internalType": "address",
          "name": "implementation",
          "type": "address"
        },
        {
          "internalType": "uint256",
          "name": "chainId",
          "type": "uint256"
        },
        {
          "internalType": "address",
          "name": "tokenContract",
          "type": "address"
        },
        {
          "internalType": "uint256",
          "name": "tokenId",
          "type": "uint256"
        },
        {
          "internalType": "uint256",
          "name": "salt",
          "type": "uint256"
        }
      ],
      "name": "account",
      "outputs": [
        {
          "internalType": "address",
          "name": "",
          "type": "address"
        }
      ],
      "stateMutability": "view",
      "type": "function"
    },
    {
      "inputs": [
        {
          "internalType": "address",
          "name": "implementation",
          "type": "address"
        },
        {
          "internalType": "uint256",
          "name": "chainId",
          "type": "uint256"
        },
        {
          "internalType": "address",
          "name": "tokenContract",
          "type": "address"
        },
        {
          "internalType": "uint256",
          "name": "tokenId",
          "type": "uint256"
        },
        {
          "internalType": "uint256",
          "name": "salt",
          "type": "uint256"
        },
        {
          "internalType": "bytes",
          "name": "initData",
          "type": "bytes"
        }
      ],
      "name": "createAccount",
      "outputs": [
        {
          "internalType": "address",
          "name": "",
          "type": "address"
        }
      ],
      "stateMutability": "nonpayable",
      "type": "function"
    }
  ],
  "bytecode": "0x608060405234801561001057600080fd5b506107a0806100206000396000f3fe608060405234801561001057600080fd5b50600436106100365760003560e01c80635e9bc5361461003b578063da7323b314610064575b600080fd5b61004e610049366004610377565b610077565b60405161005b91906103fe565b60405180910390f35b61004e61007236600461045e565b6100a8565b6000806100878787878787610204565b8051602090910120905061009b8382610256565b9150505b95945050505050565b6000806100b88989898989610204565b905060006100d08660001b8380519060200120610256565b905073ffffffffffffffffffffffffffffffffffffffff81163b156100f85791506101f99050565b6101046000878461026c565b905083156101b45760008173ffffffffffffffffffffffffffffffffffffffff168686604051610135929190610528565b6000604051808303816000865af19150503d8060008114610172576040519150601f19603f3d011682016040523d82523d6000602084013e610177565b606091505b50509050806101b2576040517f19b991a800000000000000000000000000000000000000000000000000000000815260040160405180910390fd5b505b7f07fba7bba1191da7ee1155dcfa0030701c9c9a9cc34a93b991fc6fd0c9268d8f818b8b8b8b8b6040516101ed96959493929190610543565b60405180910390a19150505b979650505050505050565b6060858286868660405160200161021e9493929190610592565b60408051601f198184030181529082905261023c9291602001610635565b604051602081830303815290604052905095945050505050565b60006102638383306102fd565b90505b92915050565b6000834710156102975760405162461bcd60e51b815260040161028e906106d4565b60405180910390fd5b81516000036102b85760405162461bcd60e51b815260040161028e90610716565b8282516020840186f5905073ffffffffffffffffffffffffffffffffffffffff81166102f65760405162461bcd60e51b815260040161028e9061075a565b9392505050565b6000604051836040820152846020820152828152600b810160ff81536055902095945050505050565b600073ffffffffffffffffffffffffffffffffffffffff8216610266565b61034d81610326565b811461035857600080fd5b50565b803561026681610344565b8061034d565b803561026681610366565b600080600080600060a0868803121561039257610392600080fd5b600061039e888861035b565b95505060206103af8882890161036c565b94505060406103c08882890161035b565b93505060606103d18882890161036c565b92505060806103e28882890161036c565b9150509295509295909350565b6103f881610326565b82525050565b6020810161026682846103ef565b60008083601f84011261042157610421600080fd5b50813567ffffffffffffffff81111561043c5761043c600080fd5b60208301915083600182028301111561045757610457600080fd5b9250929050565b600080600080600080600060c0888a03121561047c5761047c600080fd5b60006104888a8a61035b565b97505060206104998a828b0161036c565b96505060406104aa8a828b0161035b565b95505060606104bb8a828b0161036c565b94505060806104cc8a828b0161036c565b93505060a088013567ffffffffffffffff8111156104ec576104ec600080fd5b6104f88a828b0161040c565b925092505092959891949750929550565b82818337506000910152565b6000610522838584610509565b50500190565b6000610535828486610515565b949350505050565b806103f8565b60c0810161055182896103ef565b61055e60208301886103ef565b61056b604083018761053d565b61057860608301866103ef565b610585608083018561053d565b6101f960a083018461053d565b608081016105a0828761053d565b6105ad602083018661053d565b6105ba60408301856103ef565b61009f606083018461053d565b60006102668260601b90565b6000610266826105c7565b6103f86105ea82610326565b6105d3565b60005b8381101561060a5781810151838201526020016105f2565b50506000910152565b600061061d825190565b61062b8185602086016105ef565b9290920192915050565b7f3d60ad80600a3d3981f3363d3d373d3d3d363d730000000000000000000000008152601401600061066782856105de565b7f5af43d82803e903d91602b57fd5bf3000000000000000000000000000000000060148301526023909101906105358284610613565b601d81526000602082017f437265617465323a20696e73756666696369656e742062616c616e6365000000815291505b5060200190565b602080825281016102668161069d565b60208082527f437265617465323a2062797465636f6465206c656e677468206973207a65726f910190815260006106cd565b60208082528101610266816106e4565b601981526000602082017f437265617465323a204661696c6564206f6e206465706c6f7900000000000000815291506106cd565b602080825281016102668161072656fea2646970667358221220df8110a28c0dbaa5b7081dcda20033fad854c1d5e7b5bb6df76af28e972a997f64736f6c63430008130033",
  "linkReferences": {},
  "deployedLinkReferences": {}
}