{
  "_format": "hh-sol-artifact-1",
  "contractName": "Zombok",
  "sourceName": "contracts/Zombok.sol",
  "abi": [
    {
      "inputs": [],
      "stateMutability": "nonpayable",
      "type": "constructor"
    },
    {
      "anonymous": false,
      "inputs": [
        {
          "indexed": true,
          "internalType": "address",
          "name": "owner",
          "type": "address"
        },
        {
          "indexed": true,
          "internalType": "address",
          "name": "approved",
          "type": "address"
        },
        {
          "indexed": true,
          "internalType": "uint256",
          "name": "tokenId",
          "type": "uint256"
        }
      ],
      "name": "Approval",
      "type": "event"
    },
    {
      "anonymous": false,
      "inputs": [
        {
          "indexed": true,
          "internalType": "address",
          "name": "owner",
          "type": "address"
        },
        {
          "indexed": true,
          "internalType": "address",
          "name": "operator",
          "type": "address"
        },
        {
          "indexed": false,
          "internalType": "bool",
          "name": "approved",
          "type": "bool"
        }
      ],
      "name": "ApprovalForAll",
      "type": "event"
    },
    {
      "anonymous": false,
      "inputs": [
        {
          "indexed": false,
          "internalType": "uint256",
          "name": "_fromTokenId",
          "type": "uint256"
        },
        {
          "indexed": false,
          "internalType": "uint256",
          "name": "_toTokenId",
          "type": "uint256"
        }
      ],
      "name": "BatchMetadataUpdate",
      "type": "event"
    },
    {
      "anonymous": false,
      "inputs": [
        {
          "indexed": false,
          "internalType": "uint256",
          "name": "_tokenId",
          "type": "uint256"
        }
      ],
      "name": "MetadataUpdate",
      "type": "event"
    },
    {
      "anonymous": false,
      "inputs": [
        {
          "indexed": true,
          "internalType": "address",
          "name": "from",
          "type": "address"
        },
        {
          "indexed": true,
          "internalType": "address",
          "name": "to",
          "type": "address"
        },
        {
          "indexed": true,
          "internalType": "uint256",
          "name": "tokenId",
          "type": "uint256"
        }
      ],
      "name": "Transfer",
      "type": "event"
    },
    {
      "inputs": [
        {
          "internalType": "address",
          "name": "to",
          "type": "address"
        },
        {
          "internalType": "uint256",
          "name": "tokenId",
          "type": "uint256"
        }
      ],
      "name": "approve",
      "outputs": [],
      "stateMutability": "nonpayable",
      "type": "function"
    },
    {
      "inputs": [
        {
          "internalType": "address",
          "name": "owner",
          "type": "address"
        }
      ],
      "name": "balanceOf",
      "outputs": [
        {
          "internalType": "uint256",
          "name": "",
          "type": "uint256"
        }
      ],
      "stateMutability": "view",
      "type": "function"
    },
    {
      "inputs": [
        {
          "internalType": "uint256",
          "name": "tokenId",
          "type": "uint256"
        }
      ],
      "name": "generateCharacter",
      "outputs": [
        {
          "internalType": "string",
          "name": "",
          "type": "string"
        }
      ],
      "stateMutability": "nonpayable",
      "type": "function"
    },
    {
      "inputs": [
        {
          "internalType": "uint256",
          "name": "tokenId",
          "type": "uint256"
        }
      ],
      "name": "getApproved",
      "outputs": [
        {
          "internalType": "address",
          "name": "",
          "type": "address"
        }
      ],
      "stateMutability": "view",
      "type": "function"
    },
    {
      "inputs": [
        {
          "internalType": "uint256",
          "name": "tokenId",
          "type": "uint256"
        }
      ],
      "name": "getLevels",
      "outputs": [
        {
          "internalType": "string",
          "name": "",
          "type": "string"
        }
      ],
      "stateMutability": "view",
      "type": "function"
    },
    {
      "inputs": [
        {
          "internalType": "uint256",
          "name": "tokenId",
          "type": "uint256"
        }
      ],
      "name": "getTokenURI",
      "outputs": [
        {
          "internalType": "string",
          "name": "",
          "type": "string"
        }
      ],
      "stateMutability": "nonpayable",
      "type": "function"
    },
    {
      "inputs": [
        {
          "internalType": "address",
          "name": "owner",
          "type": "address"
        },
        {
          "internalType": "address",
          "name": "operator",
          "type": "address"
        }
      ],
      "name": "isApprovedForAll",
      "outputs": [
        {
          "internalType": "bool",
          "name": "",
          "type": "bool"
        }
      ],
      "stateMutability": "view",
      "type": "function"
    },
    {
      "inputs": [],
      "name": "mint",
      "outputs": [],
      "stateMutability": "nonpayable",
      "type": "function"
    },
    {
      "inputs": [],
      "name": "name",
      "outputs": [
        {
          "internalType": "string",
          "name": "",
          "type": "string"
        }
      ],
      "stateMutability": "view",
      "type": "function"
    },
    {
      "inputs": [
        {
          "internalType": "uint256",
          "name": "tokenId",
          "type": "uint256"
        }
      ],
      "name": "ownerOf",
      "outputs": [
        {
          "internalType": "address",
          "name": "",
          "type": "address"
        }
      ],
      "stateMutability": "view",
      "type": "function"
    },
    {
      "inputs": [
        {
          "internalType": "address",
          "name": "from",
          "type": "address"
        },
        {
          "internalType": "address",
          "name": "to",
          "type": "address"
        },
        {
          "internalType": "uint256",
          "name": "tokenId",
          "type": "uint256"
        }
      ],
      "name": "safeTransferFrom",
      "outputs": [],
      "stateMutability": "nonpayable",
      "type": "function"
    },
    {
      "inputs": [
        {
          "internalType": "address",
          "name": "from",
          "type": "address"
        },
        {
          "internalType": "address",
          "name": "to",
          "type": "address"
        },
        {
          "internalType": "uint256",
          "name": "tokenId",
          "type": "uint256"
        },
        {
          "internalType": "bytes",
          "name": "data",
          "type": "bytes"
        }
      ],
      "name": "safeTransferFrom",
      "outputs": [],
      "stateMutability": "nonpayable",
      "type": "function"
    },
    {
      "inputs": [
        {
          "internalType": "address",
          "name": "operator",
          "type": "address"
        },
        {
          "internalType": "bool",
          "name": "approved",
          "type": "bool"
        }
      ],
      "name": "setApprovalForAll",
      "outputs": [],
      "stateMutability": "nonpayable",
      "type": "function"
    },
    {
      "inputs": [
        {
          "internalType": "bytes4",
          "name": "interfaceId",
          "type": "bytes4"
        }
      ],
      "name": "supportsInterface",
      "outputs": [
        {
          "internalType": "bool",
          "name": "",
          "type": "bool"
        }
      ],
      "stateMutability": "view",
      "type": "function"
    },
    {
      "inputs": [],
      "name": "symbol",
      "outputs": [
        {
          "internalType": "string",
          "name": "",
          "type": "string"
        }
      ],
      "stateMutability": "view",
      "type": "function"
    },
    {
      "inputs": [
        {
          "internalType": "uint256",
          "name": "",
          "type": "uint256"
        }
      ],
      "name": "tokenIdToLevels",
      "outputs": [
        {
          "internalType": "uint256",
          "name": "",
          "type": "uint256"
        }
      ],
      "stateMutability": "view",
      "type": "function"
    },
    {
      "inputs": [
        {
          "internalType": "uint256",
          "name": "tokenId",
          "type": "uint256"
        }
      ],
      "name": "tokenURI",
      "outputs": [
        {
          "internalType": "string",
          "name": "",
          "type": "string"
        }
      ],
      "stateMutability": "view",
      "type": "function"
    },
    {
      "inputs": [
        {
          "internalType": "uint256",
          "name": "tokenId",
          "type": "uint256"
        }
      ],
      "name": "train",
      "outputs": [],
      "stateMutability": "nonpayable",
      "type": "function"
    },
    {
      "inputs": [
        {
          "internalType": "address",
          "name": "from",
          "type": "address"
        },
        {
          "internalType": "address",
          "name": "to",
          "type": "address"
        },
        {
          "internalType": "uint256",
          "name": "tokenId",
          "type": "uint256"
        }
      ],
      "name": "transferFrom",
      "outputs": [],
      "stateMutability": "nonpayable",
      "type": "function"
    }
  ],
  "bytecode": "0x60806040523480156200001157600080fd5b506040805180820182526011815270546f6b656e626f756e64205a6f6d626f6b60781b6020808301918252835180850190945260038452625a4f4d60e81b908401528151919291620000669160009162000085565b5080516200007c90600190602084019062000085565b50505062000172565b828054620000939062000141565b90600052602060002090601f016020900481019282620000b7576000855562000102565b82601f10620000d257805160ff191683800117855562000102565b8280016001018555821562000102579182015b8281111562000102578251825591602001919060010190620000e5565b506200011092915062000114565b5090565b5b8082111562000110576000815560010162000115565b634e487b7160e01b600052602260045260246000fd5b6002810460018216806200015657607f821691505b602082108114156200016c576200016c6200012b565b50919050565b61232680620001826000396000f3fe608060405234801561001057600080fd5b50600436106101515760003560e01c806342842e0e116100cd578063b88d4fde11610081578063c87b56dd11610066578063c87b56dd146102b1578063e985e9c5146102c4578063f43785f91461030057600080fd5b8063b88d4fde1461027e578063c6a4342f1461029157600080fd5b806370a08231116100b257806370a082311461024357806395d89b4114610263578063a22cb4651461026b57600080fd5b806342842e0e1461021d5780636352211e1461023057600080fd5b80630daefed51161012457806323b872dd1161010957806323b872dd146101e4578063368004ed146101f75780633bb3a24d1461020a57600080fd5b80630daefed5146101c95780631249c58b146101dc57600080fd5b806301ffc9a71461015657806306fdde031461017f578063081812fc14610194578063095ea7b3146101b4575b600080fd5b610169610164366004611368565b610313565b6040516101769190611393565b60405180910390f35b610187610357565b60405161017691906113ff565b6101a76101a2366004611421565b6103e9565b604051610176919061145c565b6101c76101c236600461147e565b610410565b005b6101876101d7366004611421565b6104bd565b6101c761051b565b6101c76101f23660046114bb565b610564565b6101c7610205366004611421565b610595565b610187610218366004611421565b610633565b6101c761022b3660046114bb565b610684565b6101a761023e366004611421565b61069f565b61025661025136600461150b565b6106d4565b6040516101769190611532565b610187610718565b6101c7610279366004611553565b610727565b6101c761028c366004611679565b610732565b61025661029f366004611421565b60086020526000908152604090205481565b6101876102bf366004611421565b61076a565b6101696102d23660046116f8565b6001600160a01b03918216600090815260056020908152604080832093909416825291909152205460ff1690565b61018761030e366004611421565b61087b565b60006001600160e01b031982167f4906490600000000000000000000000000000000000000000000000000000000148061035157506103518261089d565b92915050565b60606000805461036690611741565b80601f016020809104026020016040519081016040528092919081815260200182805461039290611741565b80156103df5780601f106103b4576101008083540402835291602001916103df565b820191906000526020600020905b8154815290600101906020018083116103c257829003601f168201915b5050505050905090565b60006103f482610938565b506000908152600460205260409020546001600160a01b031690565b600061041b8261069f565b9050806001600160a01b0316836001600160a01b031614156104585760405162461bcd60e51b815260040161044f906117cb565b60405180910390fd5b336001600160a01b038216148061049257506001600160a01b038116600090815260056020908152604080832033845290915290205460ff165b6104ae5760405162461bcd60e51b815260040161044f90611835565b6104b8838361096c565b505050565b606060006104ca8361087b565b6040516020016104da91906119ad565b60405160208183030381529060405290506104f4816109e7565b6040516020016105049190611b9a565b604051602081830303815290604052915050919050565b610529600780546001019055565b600061053460075490565b90506105403382610b4a565b6000818152600860205260408120556105618161055c81610633565b610b64565b50565b61056e3382610bf3565b61058a5760405162461bcd60e51b815260040161044f90611c2a565b6104b8838383610c71565b6000818152600260205260409020546001600160a01b03166105c95760405162461bcd60e51b815260040161044f90611c71565b336105d38261069f565b6001600160a01b0316146105f95760405162461bcd60e51b815260040161044f90611cdb565b600081815260086020526040902054610613816001611d01565b60008381526008602052604090205561062f8261055c81610633565b5050565b6060600061064083610da6565b610649846104bd565b60405160200161065a929190611d9a565b6040516020818303038152906040529050610674816109e7565b6040516020016105049190611e91565b6104b883838360405180602001604052806000815250610732565b6000818152600260205260408120546001600160a01b0316806103515760405162461bcd60e51b815260040161044f90611ef3565b60006001600160a01b0382166106fc5760405162461bcd60e51b815260040161044f90611f5d565b506001600160a01b031660009081526003602052604090205490565b60606001805461036690611741565b61062f338383610e50565b61073c3383610bf3565b6107585760405162461bcd60e51b815260040161044f90611c2a565b61076484848484610ef3565b50505050565b606061077582610938565b6000828152600660205260408120805461078e90611741565b80601f01602080910402602001604051908101604052809291908181526020018280546107ba90611741565b80156108075780601f106107dc57610100808354040283529160200191610807565b820191906000526020600020905b8154815290600101906020018083116107ea57829003601f168201915b50505050509050600061082560408051602081019091526000815290565b9050805160001415610838575092915050565b81511561086a578082604051602001610852929190611f6d565b60405160208183030381529060405292505050919050565b61087384610f26565b949350505050565b60008181526008602052604090205460609061089681610da6565b9392505050565b60006001600160e01b031982167f80ac58cd00000000000000000000000000000000000000000000000000000000148061090057506001600160e01b031982167f5b5e139f00000000000000000000000000000000000000000000000000000000145b8061035157507f01ffc9a7000000000000000000000000000000000000000000000000000000006001600160e01b0319831614610351565b6000818152600260205260409020546001600160a01b03166105615760405162461bcd60e51b815260040161044f90611ef3565b6000818152600460205260409020805473ffffffffffffffffffffffffffffffffffffffff19166001600160a01b03841690811790915581906109ae8261069f565b6001600160a01b03167f8c5be1e5ebec7d5bd14f71427d1e84f3dd0314c0f7b2291e5b200ac8c7c3b92560405160405180910390a45050565b6060815160001415610a0757505060408051602081019091526000815290565b60006040518060600160405280604081526020016122b16040913990506000600384516002610a369190611d01565b610a409190611f9b565b610a4b906004611faf565b67ffffffffffffffff811115610a6357610a63611586565b6040519080825280601f01601f191660200182016040528015610a8d576020820181803683370190505b50905060018201602082018586518701602081018051600082525b82841015610b03576003840193508351603f8160121c168701518653600186019550603f81600c1c168701518653600186019550603f8160061c168701518653600186019550603f8116870151865360018601955050610aa8565b80825260038a510660018114610b205760028114610b3357610b3b565b603d6001870353603d6002870353610b3b565b603d60018703535b50959998505050505050505050565b61062f828260405180602001604052806000815250610f83565b6000828152600260205260409020546001600160a01b0316610b985760405162461bcd60e51b815260040161044f90612028565b60008281526006602090815260409091208251610bb7928401906112ad565b507ff8e1a15aba9398e019f0b49df1a4fde98ee17ae345cb5f6b5e2c27f5033e8ce782604051610be79190611532565b60405180910390a15050565b600080610bff8361069f565b9050806001600160a01b0316846001600160a01b03161480610c4657506001600160a01b0380821660009081526005602090815260408083209388168352929052205460ff165b806108735750836001600160a01b0316610c5f846103e9565b6001600160a01b031614949350505050565b826001600160a01b0316610c848261069f565b6001600160a01b031614610caa5760405162461bcd60e51b815260040161044f90612092565b6001600160a01b038216610cd05760405162461bcd60e51b815260040161044f906120fc565b826001600160a01b0316610ce38261069f565b6001600160a01b031614610d095760405162461bcd60e51b815260040161044f90612092565b6000818152600460209081526040808320805473ffffffffffffffffffffffffffffffffffffffff199081169091556001600160a01b0387811680865260038552838620805460001901905590871680865283862080546001019055868652600290945282852080549092168417909155905184937fddf252ad1be2c89b69c2b068fc378daa952ba7f163c4a11628f55a4df523b3ef91a4505050565b60606000610db383610fb6565b600101905060008167ffffffffffffffff811115610dd357610dd3611586565b6040519080825280601f01601f191660200182016040528015610dfd576020820181803683370190505b5090508181016020015b600019017f3031323334353637383961626364656600000000000000000000000000000000600a86061a8153600a8504945084610e4357610e48565b610e07565b509392505050565b816001600160a01b0316836001600160a01b03161415610e825760405162461bcd60e51b815260040161044f90612140565b6001600160a01b0383811660008181526005602090815260408083209487168084529490915290819020805460ff1916851515179055517f17307eab39ab6107e8899845ad3d59bd9653f200f220920489ca2b5937696c3190610ee6908590611393565b60405180910390a3505050565b610efe848484610c71565b610f0a84848484611098565b6107645760405162461bcd60e51b815260040161044f906121aa565b6060610f3182610938565b6000610f4860408051602081019091526000815290565b90506000815111610f685760405180602001604052806000815250610896565b80610f7284610da6565b604051602001610504929190611f6d565b610f8d83836111a5565b610f9a6000848484611098565b6104b85760405162461bcd60e51b815260040161044f906121aa565b6000807a184f03e93ff9f4daa797ed6e38ed64bf6a1f0100000000000000008310610fff577a184f03e93ff9f4daa797ed6e38ed64bf6a1f010000000000000000830492506040015b6d04ee2d6d415b85acef8100000000831061102b576d04ee2d6d415b85acef8100000000830492506020015b662386f26fc10000831061104957662386f26fc10000830492506010015b6305f5e1008310611061576305f5e100830492506008015b612710831061107557612710830492506004015b60648310611087576064830492506002015b600a83106103515760010192915050565b60006001600160a01b0384163b1561119a57604051630a85bd0160e11b81526001600160a01b0385169063150b7a02906110dc9033908990889088906004016121ba565b602060405180830381600087803b1580156110f657600080fd5b505af1925050508015611126575060408051601f3d908101601f1916820190925261112391810190612209565b60015b611180573d808015611154576040519150601f19603f3d011682016040523d82523d6000602084013e611159565b606091505b5080516111785760405162461bcd60e51b815260040161044f906121aa565b805181602001fd5b6001600160e01b031916630a85bd0160e11b149050610873565b506001949350505050565b6001600160a01b0382166111cb5760405162461bcd60e51b815260040161044f9061225c565b6000818152600260205260409020546001600160a01b0316156112005760405162461bcd60e51b815260040161044f906122a0565b6000818152600260205260409020546001600160a01b0316156112355760405162461bcd60e51b815260040161044f906122a0565b6001600160a01b0382166000818152600360209081526040808320805460010190558483526002909152808220805473ffffffffffffffffffffffffffffffffffffffff19168417905551839291907fddf252ad1be2c89b69c2b068fc378daa952ba7f163c4a11628f55a4df523b3ef908290a45050565b8280546112b990611741565b90600052602060002090601f0160209004810192826112db5760008555611321565b82601f106112f457805160ff1916838001178555611321565b82800160010185558215611321579182015b82811115611321578251825591602001919060010190611306565b5061132d929150611331565b5090565b5b8082111561132d5760008155600101611332565b6001600160e01b031981165b811461056157600080fd5b803561035181611346565b60006020828403121561137d5761137d600080fd5b6000610873848461135d565b8015155b82525050565b602081016103518284611389565b60005b838110156113bc5781810151838201526020016113a4565b838111156107645750506000910152565b60006113d7825190565b8084526020840193506113ee8185602086016113a1565b601f01601f19169290920192915050565b6020808252810161089681846113cd565b80611352565b803561035181611410565b60006020828403121561143657611436600080fd5b60006108738484611416565b60006001600160a01b038216610351565b61138d81611442565b602081016103518284611453565b61135281611442565b80356103518161146a565b6000806040838503121561149457611494600080fd5b60006114a08585611473565b92505060206114b185828601611416565b9150509250929050565b6000806000606084860312156114d3576114d3600080fd5b60006114df8686611473565b93505060206114f086828701611473565b925050604061150186828701611416565b9150509250925092565b60006020828403121561152057611520600080fd5b60006108738484611473565b8061138d565b60208101610351828461152c565b801515611352565b803561035181611540565b6000806040838503121561156957611569600080fd5b60006115758585611473565b92505060206114b185828601611548565b634e487b7160e01b600052604160045260246000fd5b601f19601f830116810181811067ffffffffffffffff821117156115c2576115c2611586565b6040525050565b60006115d460405190565b90506115e0828261159c565b919050565b600067ffffffffffffffff8211156115ff576115ff611586565b601f19601f83011660200192915050565b82818337506000910152565b600061162f61162a846115e5565b6115c9565b90508281526020810184848401111561164a5761164a600080fd5b610e48848285611610565b600082601f83011261166957611669600080fd5b813561087384826020860161161c565b6000806000806080858703121561169257611692600080fd5b600061169e8787611473565b94505060206116af87828801611473565b93505060406116c087828801611416565b925050606085013567ffffffffffffffff8111156116e0576116e0600080fd5b6116ec87828801611655565b91505092959194509250565b6000806040838503121561170e5761170e600080fd5b600061171a8585611473565b92505060206114b185828601611473565b634e487b7160e01b600052602260045260246000fd5b60028104600182168061175557607f821691505b602082108114156117685761176861172b565b50919050565b602181526000602082017f4552433732313a20617070726f76616c20746f2063757272656e74206f776e6581527f7200000000000000000000000000000000000000000000000000000000000000602082015291505b5060400190565b602080825281016103518161176e565b603d81526000602082017f4552433732313a20617070726f76652063616c6c6572206973206e6f7420746f81527f6b656e206f776e6572206f7220617070726f76656420666f7220616c6c000000602082015291506117c4565b60208082528101610351816117db565b7f3c7465787420783d223530252220793d223430252220636c6173733d2262617381527f652220646f6d696e616e742d626173656c696e653d226d6964646c652220746560208201527f78742d616e63686f723d226d6964646c65223e00000000000000000000000000604082015260005b5060530190565b7f57617272696f7200000000000000000000000000000000000000000000000000815260005b5060070190565b7f3c2f746578743e00000000000000000000000000000000000000000000000000815260006118e4565b7f3c7465787420783d223530252220793d223530252220636c6173733d2262617381527f652220646f6d696e616e742d626173656c696e653d226d6964646c652220746560208201527f78742d616e63686f723d226d6964646c65223e00000000000000000000000000604082015260006118b7565b6000611995825190565b6119a38185602086016113a1565b9290920192915050565b7f3c73766720786d6c6e733d22687474703a2f2f7777772e77332e6f72672f323081527f30302f73766722207072657365727665417370656374526174696f3d22784d6960208201527f6e594d696e206d656574222076696577426f783d22302030203335302033353060408201527f223e00000000000000000000000000000000000000000000000000000000000060608201527f3c7374796c653e2e62617365207b2066696c6c3a2077686974653b20666f6e7460628201527f2d66616d696c793a2073657269663b20666f6e742d73697a653a20313470783b60828201527f207d3c2f7374796c653e0000000000000000000000000000000000000000000060a28201527f3c726563742077696474683d223130302522206865696768743d22313030252260ac8201527f2066696c6c3d22626c61636b22202f3e0000000000000000000000000000000060cc82015260dc016000611b0e82611845565b9150611b19826118be565b9150611b24826118eb565b9150611b2f82611915565b7f4c6576656c733a2000000000000000000000000000000000000000000000000081526008019150611b61828461198b565b9150611b6c826118eb565b7f3c2f7376673e00000000000000000000000000000000000000000000000000008152915060068201610896565b7f646174613a696d6167652f7376672b786d6c3b6261736536342c00000000000081526000601a82015b9150610896828461198b565b602d81526000602082017f4552433732313a2063616c6c6572206973206e6f7420746f6b656e206f776e6581527f72206f7220617070726f76656400000000000000000000000000000000000000602082015291506117c4565b6020808252810161035181611bd0565b601c81526000602082017f506c656173652075736520616e206578697374696e6720746f6b656e00000000815291505b5060200190565b6020808252810161035181611c3a565b602381526000602082017f596f75206d757374206f776e207468697320746f6b656e20746f20747261696e81527f2069740000000000000000000000000000000000000000000000000000000000602082015291506117c4565b6020808252810161035181611c81565b634e487b7160e01b600052601160045260246000fd5b60008219821115611d1457611d14611ceb565b500190565b7f7b00000000000000000000000000000000000000000000000000000000000000815260005b5060010190565b7f220000000000000000000000000000000000000000000000000000000000000081526000611d3f565b7f7d0000000000000000000000000000000000000000000000000000000000000081526000611d3f565b6000611da582611d19565b7f226e616d65223a20225a6f6d626f6b00000000000000000000000000000000008152600f019150611dd7828561198b565b7f222c00000000000000000000000000000000000000000000000000000000000081527f226465736372697074696f6e223a2022546f6b656e626f756e64204e5043732060028201527f656e61626c6564206279204552432d36353531222c000000000000000000000060228201527f22696d616765223a20220000000000000000000000000000000000000000000060378201526041019150611e7b828461198b565b9150611e8682611d46565b915061087382611d70565b7f646174613a6170706c69636174696f6e2f6a736f6e3b6261736536342c00000081526000601d8201611bc4565b601881526000602082017f4552433732313a20696e76616c696420746f6b656e204944000000000000000081529150611c6a565b6020808252810161035181611ebf565b602981526000602082017f4552433732313a2061646472657373207a65726f206973206e6f74206120766181527f6c6964206f776e65720000000000000000000000000000000000000000000000602082015291506117c4565b6020808252810161035181611f03565b6000611f79828561198b565b9150610873828461198b565b634e487b7160e01b600052601260045260246000fd5b600082611faa57611faa611f85565b500490565b6000816000190483118215151615611fc957611fc9611ceb565b500290565b602e81526000602082017f45524337323155524953746f726167653a2055524920736574206f66206e6f6e81527f6578697374656e7420746f6b656e000000000000000000000000000000000000602082015291506117c4565b6020808252810161035181611fce565b602581526000602082017f4552433732313a207472616e736665722066726f6d20696e636f72726563742081527f6f776e6572000000000000000000000000000000000000000000000000000000602082015291506117c4565b6020808252810161035181612038565b602481526000602082017f4552433732313a207472616e7366657220746f20746865207a65726f2061646481527f7265737300000000000000000000000000000000000000000000000000000000602082015291506117c4565b60208082528101610351816120a2565b601981526000602082017f4552433732313a20617070726f766520746f2063616c6c65720000000000000081529150611c6a565b602080825281016103518161210c565b603281526000602082017f4552433732313a207472616e7366657220746f206e6f6e20455243373231526581527f63656976657220696d706c656d656e7465720000000000000000000000000000602082015291506117c4565b6020808252810161035181612150565b608081016121c88287611453565b6121d56020830186611453565b6121e2604083018561152c565b81810360608301526121f481846113cd565b9695505050505050565b805161035181611346565b60006020828403121561221e5761221e600080fd5b600061087384846121fe565b60208082527f4552433732313a206d696e7420746f20746865207a65726f206164647265737391019081526000611c6a565b602080825281016103518161222a565b601c81526000602082017f4552433732313a20746f6b656e20616c7265616479206d696e7465640000000081529150611c6a565b602080825281016103518161226c56fe4142434445464748494a4b4c4d4e4f505152535455565758595a6162636465666768696a6b6c6d6e6f707172737475767778797a303132333435363738392b2fa2646970667358221220db7bb986604592d020b91bd85789fa85a427b9804c65948f459b798d3fa6261364736f6c63430008090033",
  "linkReferences": {},
  "deployedLinkReferences": {}
}