{
  "_format": "hh-sol-artifact-1",
  "contractName": "zkCraft",
  "sourceName": "contracts/zkCraft.sol",
  "abi": [
    {
      "inputs": [],
      "stateMutability": "nonpayable",
      "type": "constructor"
    },
    {
      "anonymous": false,
      "inputs": [
        {
          "indexed": true,
          "internalType": "address",
          "name": "owner",
          "type": "address"
        },
        {
          "indexed": true,
          "internalType": "address",
          "name": "approved",
          "type": "address"
        },
        {
          "indexed": true,
          "internalType": "uint256",
          "name": "tokenId",
          "type": "uint256"
        }
      ],
      "name": "Approval",
      "type": "event"
    },
    {
      "anonymous": false,
      "inputs": [
        {
          "indexed": true,
          "internalType": "address",
          "name": "owner",
          "type": "address"
        },
        {
          "indexed": true,
          "internalType": "address",
          "name": "operator",
          "type": "address"
        },
        {
          "indexed": false,
          "internalType": "bool",
          "name": "approved",
          "type": "bool"
        }
      ],
      "name": "ApprovalForAll",
      "type": "event"
    },
    {
      "anonymous": false,
      "inputs": [
        {
          "indexed": false,
          "internalType": "uint256",
          "name": "_fromTokenId",
          "type": "uint256"
        },
        {
          "indexed": false,
          "internalType": "uint256",
          "name": "_toTokenId",
          "type": "uint256"
        }
      ],
      "name": "BatchMetadataUpdate",
      "type": "event"
    },
    {
      "anonymous": false,
      "inputs": [
        {
          "indexed": false,
          "internalType": "uint256",
          "name": "_tokenId",
          "type": "uint256"
        }
      ],
      "name": "MetadataUpdate",
      "type": "event"
    },
    {
      "anonymous": false,
      "inputs": [
        {
          "indexed": true,
          "internalType": "address",
          "name": "from",
          "type": "address"
        },
        {
          "indexed": true,
          "internalType": "address",
          "name": "to",
          "type": "address"
        },
        {
          "indexed": true,
          "internalType": "uint256",
          "name": "tokenId",
          "type": "uint256"
        }
      ],
      "name": "Transfer",
      "type": "event"
    },
    {
      "inputs": [
        {
          "internalType": "address",
          "name": "to",
          "type": "address"
        },
        {
          "internalType": "uint256",
          "name": "tokenId",
          "type": "uint256"
        }
      ],
      "name": "approve",
      "outputs": [],
      "stateMutability": "nonpayable",
      "type": "function"
    },
    {
      "inputs": [
        {
          "internalType": "address",
          "name": "owner",
          "type": "address"
        }
      ],
      "name": "balanceOf",
      "outputs": [
        {
          "internalType": "uint256",
          "name": "",
          "type": "uint256"
        }
      ],
      "stateMutability": "view",
      "type": "function"
    },
    {
      "inputs": [
        {
          "internalType": "uint256",
          "name": "tokenId",
          "type": "uint256"
        }
      ],
      "name": "generateCharacter",
      "outputs": [
        {
          "internalType": "string",
          "name": "",
          "type": "string"
        }
      ],
      "stateMutability": "nonpayable",
      "type": "function"
    },
    {
      "inputs": [
        {
          "internalType": "uint256",
          "name": "tokenId",
          "type": "uint256"
        }
      ],
      "name": "getApproved",
      "outputs": [
        {
          "internalType": "address",
          "name": "",
          "type": "address"
        }
      ],
      "stateMutability": "view",
      "type": "function"
    },
    {
      "inputs": [
        {
          "internalType": "uint256",
          "name": "tokenId",
          "type": "uint256"
        }
      ],
      "name": "getLevels",
      "outputs": [
        {
          "internalType": "string",
          "name": "",
          "type": "string"
        }
      ],
      "stateMutability": "view",
      "type": "function"
    },
    {
      "inputs": [
        {
          "internalType": "uint256",
          "name": "tokenId",
          "type": "uint256"
        }
      ],
      "name": "getTokenURI",
      "outputs": [
        {
          "internalType": "string",
          "name": "",
          "type": "string"
        }
      ],
      "stateMutability": "nonpayable",
      "type": "function"
    },
    {
      "inputs": [
        {
          "internalType": "address",
          "name": "owner",
          "type": "address"
        },
        {
          "internalType": "address",
          "name": "operator",
          "type": "address"
        }
      ],
      "name": "isApprovedForAll",
      "outputs": [
        {
          "internalType": "bool",
          "name": "",
          "type": "bool"
        }
      ],
      "stateMutability": "view",
      "type": "function"
    },
    {
      "inputs": [],
      "name": "mint",
      "outputs": [],
      "stateMutability": "nonpayable",
      "type": "function"
    },
    {
      "inputs": [],
      "name": "name",
      "outputs": [
        {
          "internalType": "string",
          "name": "",
          "type": "string"
        }
      ],
      "stateMutability": "view",
      "type": "function"
    },
    {
      "inputs": [
        {
          "internalType": "uint256",
          "name": "tokenId",
          "type": "uint256"
        }
      ],
      "name": "ownerOf",
      "outputs": [
        {
          "internalType": "address",
          "name": "",
          "type": "address"
        }
      ],
      "stateMutability": "view",
      "type": "function"
    },
    {
      "inputs": [
        {
          "internalType": "address",
          "name": "from",
          "type": "address"
        },
        {
          "internalType": "address",
          "name": "to",
          "type": "address"
        },
        {
          "internalType": "uint256",
          "name": "tokenId",
          "type": "uint256"
        }
      ],
      "name": "safeTransferFrom",
      "outputs": [],
      "stateMutability": "nonpayable",
      "type": "function"
    },
    {
      "inputs": [
        {
          "internalType": "address",
          "name": "from",
          "type": "address"
        },
        {
          "internalType": "address",
          "name": "to",
          "type": "address"
        },
        {
          "internalType": "uint256",
          "name": "tokenId",
          "type": "uint256"
        },
        {
          "internalType": "bytes",
          "name": "data",
          "type": "bytes"
        }
      ],
      "name": "safeTransferFrom",
      "outputs": [],
      "stateMutability": "nonpayable",
      "type": "function"
    },
    {
      "inputs": [
        {
          "internalType": "address",
          "name": "operator",
          "type": "address"
        },
        {
          "internalType": "bool",
          "name": "approved",
          "type": "bool"
        }
      ],
      "name": "setApprovalForAll",
      "outputs": [],
      "stateMutability": "nonpayable",
      "type": "function"
    },
    {
      "inputs": [
        {
          "internalType": "bytes4",
          "name": "interfaceId",
          "type": "bytes4"
        }
      ],
      "name": "supportsInterface",
      "outputs": [
        {
          "internalType": "bool",
          "name": "",
          "type": "bool"
        }
      ],
      "stateMutability": "view",
      "type": "function"
    },
    {
      "inputs": [],
      "name": "symbol",
      "outputs": [
        {
          "internalType": "string",
          "name": "",
          "type": "string"
        }
      ],
      "stateMutability": "view",
      "type": "function"
    },
    {
      "inputs": [
        {
          "internalType": "uint256",
          "name": "",
          "type": "uint256"
        }
      ],
      "name": "tokenIdToLevels",
      "outputs": [
        {
          "internalType": "uint256",
          "name": "",
          "type": "uint256"
        }
      ],
      "stateMutability": "view",
      "type": "function"
    },
    {
      "inputs": [
        {
          "internalType": "uint256",
          "name": "tokenId",
          "type": "uint256"
        }
      ],
      "name": "tokenURI",
      "outputs": [
        {
          "internalType": "string",
          "name": "",
          "type": "string"
        }
      ],
      "stateMutability": "view",
      "type": "function"
    },
    {
      "inputs": [
        {
          "internalType": "uint256",
          "name": "tokenId",
          "type": "uint256"
        }
      ],
      "name": "train",
      "outputs": [],
      "stateMutability": "nonpayable",
      "type": "function"
    },
    {
      "inputs": [
        {
          "internalType": "address",
          "name": "from",
          "type": "address"
        },
        {
          "internalType": "address",
          "name": "to",
          "type": "address"
        },
        {
          "internalType": "uint256",
          "name": "tokenId",
          "type": "uint256"
        }
      ],
      "name": "transferFrom",
      "outputs": [],
      "stateMutability": "nonpayable",
      "type": "function"
    }
  ],
  "bytecode": "0x60806040523480156200001157600080fd5b5060405180604001604052806012815260200171151bdad95b989bdd5b99081e9ad0dc98599d60721b815250604051806040016040528060038152602001621692d560ea1b81525081600090816200006a919062000196565b50600162000079828262000196565b50505062000266565b634e487b7160e01b600052604160045260246000fd5b634e487b7160e01b600052602260045260246000fd5b600281046001821680620000c357607f821691505b602082108103620000d857620000d862000098565b50919050565b6000620000ef620000ec8381565b90565b92915050565b6200010083620000de565b815460001960089490940293841b1916921b91909117905550565b60006200012a818484620000f5565b505050565b818110156200014e57620001456000826200011b565b6001016200012f565b5050565b601f8211156200012a576000818152602090206020601f850104810160208510156200017b5750805b6200018f6020601f8601048301826200012f565b5050505050565b81516001600160401b03811115620001b257620001b262000082565b620001be8254620000ae565b620001cb82828562000152565b6020601f831160018114620002025760008415620001e95750858201515b600019600886021c19811660028602178655506200025e565b600085815260208120601f198616915b8281101562000234578885015182556020948501946001909201910162000212565b86831015620002515784890151600019601f89166008021c191682555b6001600288020188555050505b505050505050565b6123be80620002766000396000f3fe608060405234801561001057600080fd5b50600436106101515760003560e01c806342842e0e116100cd578063b88d4fde11610081578063c87b56dd11610066578063c87b56dd146102b1578063e985e9c5146102c4578063f43785f91461030057600080fd5b8063b88d4fde1461027e578063c6a4342f1461029157600080fd5b806370a08231116100b257806370a082311461024357806395d89b4114610263578063a22cb4651461026b57600080fd5b806342842e0e1461021d5780636352211e1461023057600080fd5b80630daefed51161012457806323b872dd1161010957806323b872dd146101e4578063368004ed146101f75780633bb3a24d1461020a57600080fd5b80630daefed5146101c95780631249c58b146101dc57600080fd5b806301ffc9a71461015657806306fdde031461017f578063081812fc14610194578063095ea7b3146101b4575b600080fd5b6101696101643660046112af565b610313565b60405161017691906112da565b60405180910390f35b610187610357565b604051610176919061133e565b6101a76101a2366004611360565b6103e9565b604051610176919061139b565b6101c76101c23660046113bd565b610410565b005b6101876101d7366004611360565b6104bc565b6101c761051a565b6101c76101f23660046113fa565b610563565b6101c7610205366004611360565b610594565b610187610218366004611360565b610632565b6101c761022b3660046113fa565b610683565b6101a761023e366004611360565b61069e565b61025661025136600461144a565b6106d3565b6040516101769190611471565b610187610717565b6101c7610279366004611492565b610726565b6101c761028c3660046115b8565b610731565b61025661029f366004611360565b60086020526000908152604090205481565b6101876102bf366004611360565b610769565b6101696102d2366004611637565b6001600160a01b03918216600090815260056020908152604080832093909416825291909152205460ff1690565b61018761030e366004611360565b610879565b60006001600160e01b031982167f4906490600000000000000000000000000000000000000000000000000000000148061035157506103518261089b565b92915050565b60606000805461036690611680565b80601f016020809104026020016040519081016040528092919081815260200182805461039290611680565b80156103df5780601f106103b4576101008083540402835291602001916103df565b820191906000526020600020905b8154815290600101906020018083116103c257829003601f168201915b5050505050905090565b60006103f482610936565b506000908152600460205260409020546001600160a01b031690565b600061041b8261069e565b9050806001600160a01b0316836001600160a01b0316036104575760405162461bcd60e51b815260040161044e90611709565b60405180910390fd5b336001600160a01b038216148061049157506001600160a01b038116600090815260056020908152604080832033845290915290205460ff165b6104ad5760405162461bcd60e51b815260040161044e90611773565b6104b7838361096a565b505050565b606060006104c983610879565b6040516020016104d991906118eb565b60405160208183030381529060405290506104f3816109e5565b6040516020016105039190611ad8565b604051602081830303815290604052915050919050565b610528600780546001019055565b600061053360075490565b905061053f3382610b47565b6000818152600860205260408120556105608161055b81610632565b610b61565b50565b61056d3382610be9565b6105895760405162461bcd60e51b815260040161044e90611b68565b6104b7838383610c67565b6000818152600260205260409020546001600160a01b03166105c85760405162461bcd60e51b815260040161044e90611baf565b336105d28261069e565b6001600160a01b0316146105f85760405162461bcd60e51b815260040161044e90611c19565b600081815260086020526040902054610612816001611c3f565b60008381526008602052604090205561062e8261055b81610632565b5050565b6060600061063f83610d9c565b610648846104bc565b604051602001610659929190611cd3565b6040516020818303038152906040529050610673816109e5565b6040516020016105039190611dca565b6104b783838360405180602001604052806000815250610731565b6000818152600260205260408120546001600160a01b0316806103515760405162461bcd60e51b815260040161044e90611e2c565b60006001600160a01b0382166106fb5760405162461bcd60e51b815260040161044e90611e96565b506001600160a01b031660009081526003602052604090205490565b60606001805461036690611680565b61062e338383610e3d565b61073b3383610be9565b6107575760405162461bcd60e51b815260040161044e90611b68565b61076384848484610edf565b50505050565b606061077482610936565b6000828152600660205260408120805461078d90611680565b80601f01602080910402602001604051908101604052809291908181526020018280546107b990611680565b80156108065780601f106107db57610100808354040283529160200191610806565b820191906000526020600020905b8154815290600101906020018083116107e957829003601f168201915b50505050509050600061082460408051602081019091526000815290565b90508051600003610836575092915050565b815115610868578082604051602001610850929190611ea6565b60405160208183030381529060405292505050919050565b61087184610f12565b949350505050565b60008181526008602052604090205460609061089481610d9c565b9392505050565b60006001600160e01b031982167f80ac58cd0000000000000000000000000000000000000000000000000000000014806108fe57506001600160e01b031982167f5b5e139f00000000000000000000000000000000000000000000000000000000145b8061035157507f01ffc9a7000000000000000000000000000000000000000000000000000000006001600160e01b0319831614610351565b6000818152600260205260409020546001600160a01b03166105605760405162461bcd60e51b815260040161044e90611e2c565b6000818152600460205260409020805473ffffffffffffffffffffffffffffffffffffffff19166001600160a01b03841690811790915581906109ac8261069e565b6001600160a01b03167f8c5be1e5ebec7d5bd14f71427d1e84f3dd0314c0f7b2291e5b200ac8c7c3b92560405160405180910390a45050565b60608151600003610a0457505060408051602081019091526000815290565b60006040518060600160405280604081526020016123496040913990506000600384516002610a339190611c3f565b610a3d9190611ed4565b610a48906004611ee8565b67ffffffffffffffff811115610a6057610a606114c5565b6040519080825280601f01601f191660200182016040528015610a8a576020820181803683370190505b50905060018201602082018586518701602081018051600082525b82841015610b00576003840193508351603f8160121c168701518653600186019550603f81600c1c168701518653600186019550603f8160061c168701518653600186019550603f8116870151865360018601955050610aa5565b80825260038a510660018114610b1d5760028114610b3057610b38565b603d6001870353603d6002870353610b38565b603d60018703535b50959998505050505050505050565b61062e828260405180602001604052806000815250610f6f565b6000828152600260205260409020546001600160a01b0316610b955760405162461bcd60e51b815260040161044e90611f61565b6000828152600660205260409020610bad828261200c565b507ff8e1a15aba9398e019f0b49df1a4fde98ee17ae345cb5f6b5e2c27f5033e8ce782604051610bdd9190611471565b60405180910390a15050565b600080610bf58361069e565b9050806001600160a01b0316846001600160a01b03161480610c3c57506001600160a01b0380821660009081526005602090815260408083209388168352929052205460ff165b806108715750836001600160a01b0316610c55846103e9565b6001600160a01b031614949350505050565b826001600160a01b0316610c7a8261069e565b6001600160a01b031614610ca05760405162461bcd60e51b815260040161044e9061212a565b6001600160a01b038216610cc65760405162461bcd60e51b815260040161044e90612194565b826001600160a01b0316610cd98261069e565b6001600160a01b031614610cff5760405162461bcd60e51b815260040161044e9061212a565b6000818152600460209081526040808320805473ffffffffffffffffffffffffffffffffffffffff199081169091556001600160a01b0387811680865260038552838620805460001901905590871680865283862080546001019055868652600290945282852080549092168417909155905184937fddf252ad1be2c89b69c2b068fc378daa952ba7f163c4a11628f55a4df523b3ef91a4505050565b60606000610da983610fa2565b600101905060008167ffffffffffffffff811115610dc957610dc96114c5565b6040519080825280601f01601f191660200182016040528015610df3576020820181803683370190505b5090508181016020015b600019017f3031323334353637383961626364656600000000000000000000000000000000600a86061a8153600a8504945084610dfd575b509392505050565b816001600160a01b0316836001600160a01b031603610e6e5760405162461bcd60e51b815260040161044e906121d8565b6001600160a01b0383811660008181526005602090815260408083209487168084529490915290819020805460ff1916851515179055517f17307eab39ab6107e8899845ad3d59bd9653f200f220920489ca2b5937696c3190610ed29085906112da565b60405180910390a3505050565b610eea848484610c67565b610ef684848484611084565b6107635760405162461bcd60e51b815260040161044e90612242565b6060610f1d82610936565b6000610f3460408051602081019091526000815290565b90506000815111610f545760405180602001604052806000815250610894565b80610f5e84610d9c565b604051602001610503929190611ea6565b610f798383611185565b610f866000848484611084565b6104b75760405162461bcd60e51b815260040161044e90612242565b6000807a184f03e93ff9f4daa797ed6e38ed64bf6a1f0100000000000000008310610feb577a184f03e93ff9f4daa797ed6e38ed64bf6a1f010000000000000000830492506040015b6d04ee2d6d415b85acef81000000008310611017576d04ee2d6d415b85acef8100000000830492506020015b662386f26fc10000831061103557662386f26fc10000830492506010015b6305f5e100831061104d576305f5e100830492506008015b612710831061106157612710830492506004015b60648310611073576064830492506002015b600a83106103515760010192915050565b60006001600160a01b0384163b1561117a57604051630a85bd0160e11b81526001600160a01b0385169063150b7a02906110c8903390899088908890600401612252565b6020604051808303816000875af1925050508015611103575060408051601f3d908101601f19168201909252611100918101906122a1565b60015b611160573d808015611131576040519150601f19603f3d011682016040523d82523d6000602084013e611136565b606091505b5080516000036111585760405162461bcd60e51b815260040161044e90612242565b805181602001fd5b6001600160e01b031916630a85bd0160e11b149050610871565b506001949350505050565b6001600160a01b0382166111ab5760405162461bcd60e51b815260040161044e906122f4565b6000818152600260205260409020546001600160a01b0316156111e05760405162461bcd60e51b815260040161044e90612338565b6000818152600260205260409020546001600160a01b0316156112155760405162461bcd60e51b815260040161044e90612338565b6001600160a01b0382166000818152600360209081526040808320805460010190558483526002909152808220805473ffffffffffffffffffffffffffffffffffffffff19168417905551839291907fddf252ad1be2c89b69c2b068fc378daa952ba7f163c4a11628f55a4df523b3ef908290a45050565b6001600160e01b031981165b811461056057600080fd5b80356103518161128d565b6000602082840312156112c4576112c4600080fd5b600061087184846112a4565b8015155b82525050565b6020810161035182846112d0565b60005b838110156113035781810151838201526020016112eb565b50506000910152565b6000611316825190565b80845260208401935061132d8185602086016112e8565b601f01601f19169290920192915050565b60208082528101610894818461130c565b80611299565b80356103518161134f565b60006020828403121561137557611375600080fd5b60006108718484611355565b60006001600160a01b038216610351565b6112d481611381565b602081016103518284611392565b61129981611381565b8035610351816113a9565b600080604083850312156113d3576113d3600080fd5b60006113df85856113b2565b92505060206113f085828601611355565b9150509250929050565b60008060006060848603121561141257611412600080fd5b600061141e86866113b2565b935050602061142f868287016113b2565b925050604061144086828701611355565b9150509250925092565b60006020828403121561145f5761145f600080fd5b600061087184846113b2565b806112d4565b60208101610351828461146b565b801515611299565b80356103518161147f565b600080604083850312156114a8576114a8600080fd5b60006114b485856113b2565b92505060206113f085828601611487565b634e487b7160e01b600052604160045260246000fd5b601f19601f830116810181811067ffffffffffffffff82111715611501576115016114c5565b6040525050565b600061151360405190565b905061151f82826114db565b919050565b600067ffffffffffffffff82111561153e5761153e6114c5565b601f19601f83011660200192915050565b82818337506000910152565b600061156e61156984611524565b611508565b90508281526020810184848401111561158957611589600080fd5b610e3584828561154f565b600082601f8301126115a8576115a8600080fd5b813561087184826020860161155b565b600080600080608085870312156115d1576115d1600080fd5b60006115dd87876113b2565b94505060206115ee878288016113b2565b93505060406115ff87828801611355565b925050606085013567ffffffffffffffff81111561161f5761161f600080fd5b61162b87828801611594565b91505092959194509250565b6000806040838503121561164d5761164d600080fd5b600061165985856113b2565b92505060206113f0858286016113b2565b634e487b7160e01b600052602260045260246000fd5b60028104600182168061169457607f821691505b6020821081036116a6576116a661166a565b50919050565b602181526000602082017f4552433732313a20617070726f76616c20746f2063757272656e74206f776e6581527f7200000000000000000000000000000000000000000000000000000000000000602082015291505b5060400190565b60208082528101610351816116ac565b603d81526000602082017f4552433732313a20617070726f76652063616c6c6572206973206e6f7420746f81527f6b656e206f776e6572206f7220617070726f76656420666f7220616c6c00000060208201529150611702565b6020808252810161035181611719565b7f3c7465787420783d223530252220793d223430252220636c6173733d2262617381527f652220646f6d696e616e742d626173656c696e653d226d6964646c652220746560208201527f78742d616e63686f723d226d6964646c65223e00000000000000000000000000604082015260005b5060530190565b7f57617272696f7200000000000000000000000000000000000000000000000000815260005b5060070190565b7f3c2f746578743e0000000000000000000000000000000000000000000000000081526000611822565b7f3c7465787420783d223530252220793d223530252220636c6173733d2262617381527f652220646f6d696e616e742d626173656c696e653d226d6964646c652220746560208201527f78742d616e63686f723d226d6964646c65223e00000000000000000000000000604082015260006117f5565b60006118d3825190565b6118e18185602086016112e8565b9290920192915050565b7f3c73766720786d6c6e733d22687474703a2f2f7777772e77332e6f72672f323081527f30302f73766722207072657365727665417370656374526174696f3d22784d6960208201527f6e594d696e206d656574222076696577426f783d22302030203335302033353060408201527f223e00000000000000000000000000000000000000000000000000000000000060608201527f3c7374796c653e2e62617365207b2066696c6c3a2077686974653b20666f6e7460628201527f2d66616d696c793a2073657269663b20666f6e742d73697a653a20313470783b60828201527f207d3c2f7374796c653e0000000000000000000000000000000000000000000060a28201527f3c726563742077696474683d223130302522206865696768743d22313030252260ac8201527f2066696c6c3d22626c61636b22202f3e0000000000000000000000000000000060cc82015260dc016000611a4c82611783565b9150611a57826117fc565b9150611a6282611829565b9150611a6d82611853565b7f4c6576656c733a2000000000000000000000000000000000000000000000000081526008019150611a9f82846118c9565b9150611aaa82611829565b7f3c2f7376673e00000000000000000000000000000000000000000000000000008152915060068201610894565b7f646174613a696d6167652f7376672b786d6c3b6261736536342c00000000000081526000601a82015b915061089482846118c9565b602d81526000602082017f4552433732313a2063616c6c6572206973206e6f7420746f6b656e206f776e6581527f72206f7220617070726f7665640000000000000000000000000000000000000060208201529150611702565b6020808252810161035181611b0e565b601c81526000602082017f506c656173652075736520616e206578697374696e6720746f6b656e00000000815291505b5060200190565b6020808252810161035181611b78565b602381526000602082017f596f75206d757374206f776e207468697320746f6b656e20746f20747261696e81527f206974000000000000000000000000000000000000000000000000000000000060208201529150611702565b6020808252810161035181611bbf565b634e487b7160e01b600052601160045260246000fd5b8082018082111561035157610351611c29565b7f7b00000000000000000000000000000000000000000000000000000000000000815260005b5060010190565b7f220000000000000000000000000000000000000000000000000000000000000081526000611c78565b7f7d0000000000000000000000000000000000000000000000000000000000000081526000611c78565b6000611cde82611c52565b7f226e616d65223a20227a6b43726166740000000000000000000000000000000081526010019150611d1082856118c9565b7f222c00000000000000000000000000000000000000000000000000000000000081527f226465736372697074696f6e223a2022546f6b656e626f756e64204e5043732060028201527f656e61626c6564206279204552432d36353531222c000000000000000000000060228201527f22696d616765223a20220000000000000000000000000000000000000000000060378201526041019150611db482846118c9565b9150611dbf82611c7f565b915061087182611ca9565b7f646174613a6170706c69636174696f6e2f6a736f6e3b6261736536342c00000081526000601d8201611b02565b601881526000602082017f4552433732313a20696e76616c696420746f6b656e204944000000000000000081529150611ba8565b6020808252810161035181611df8565b602981526000602082017f4552433732313a2061646472657373207a65726f206973206e6f74206120766181527f6c6964206f776e6572000000000000000000000000000000000000000000000060208201529150611702565b6020808252810161035181611e3c565b6000611eb282856118c9565b915061087182846118c9565b634e487b7160e01b600052601260045260246000fd5b600082611ee357611ee3611ebe565b500490565b818102808215838204851417611f0057611f00611c29565b5092915050565b602e81526000602082017f45524337323155524953746f726167653a2055524920736574206f66206e6f6e81527f6578697374656e7420746f6b656e00000000000000000000000000000000000060208201529150611702565b6020808252810161035181611f07565b6000610351611f7d8381565b90565b611f8983611f71565b815460001960089490940293841b1916921b91909117905550565b60006104b7818484611f80565b8181101561062e57611fc4600082611fa4565b600101611fb1565b601f8211156104b7576000818152602090206020601f85010481016020851015611ff35750805b6120056020601f860104830182611fb1565b5050505050565b815167ffffffffffffffff811115612026576120266114c5565b6120308254611680565b61203b828285611fcc565b6020601f83116001811461206f57600084156120575750858201515b600019600886021c19811660028602178655506120c8565b600085815260208120601f198616915b8281101561209f578885015182556020948501946001909201910161207f565b868310156120bb5784890151600019601f89166008021c191682555b6001600288020188555050505b505050505050565b602581526000602082017f4552433732313a207472616e736665722066726f6d20696e636f72726563742081527f6f776e657200000000000000000000000000000000000000000000000000000060208201529150611702565b60208082528101610351816120d0565b602481526000602082017f4552433732313a207472616e7366657220746f20746865207a65726f2061646481527f726573730000000000000000000000000000000000000000000000000000000060208201529150611702565b602080825281016103518161213a565b601981526000602082017f4552433732313a20617070726f766520746f2063616c6c65720000000000000081529150611ba8565b60208082528101610351816121a4565b603281526000602082017f4552433732313a207472616e7366657220746f206e6f6e20455243373231526581527f63656976657220696d706c656d656e746572000000000000000000000000000060208201529150611702565b60208082528101610351816121e8565b608081016122608287611392565b61226d6020830186611392565b61227a604083018561146b565b818103606083015261228c818461130c565b9695505050505050565b80516103518161128d565b6000602082840312156122b6576122b6600080fd5b60006108718484612296565b60208082527f4552433732313a206d696e7420746f20746865207a65726f206164647265737391019081526000611ba8565b60208082528101610351816122c2565b601c81526000602082017f4552433732313a20746f6b656e20616c7265616479206d696e7465640000000081529150611ba8565b602080825281016103518161230456fe4142434445464748494a4b4c4d4e4f505152535455565758595a6162636465666768696a6b6c6d6e6f707172737475767778797a303132333435363738392b2fa2646970667358221220e05dac3b71d19366298a549e8256029b5042d0f87d004be3640dfb629d90712c64736f6c63430008130033",
  "linkReferences": {},
  "deployedLinkReferences": {}
}