{
  "_format": "hh-sol-artifact-1",
  "contractName": "ERC1155Holder",
  "sourceName": "@openzeppelin/contracts/token/ERC1155/utils/ERC1155Holder.sol",
  "abi": [
    {
      "inputs": [
        {
          "internalType": "address",
          "name": "",
          "type": "address"
        },
        {
          "internalType": "address",
          "name": "",
          "type": "address"
        },
        {
          "internalType": "uint256[]",
          "name": "",
          "type": "uint256[]"
        },
        {
          "internalType": "uint256[]",
          "name": "",
          "type": "uint256[]"
        },
        {
          "internalType": "bytes",
          "name": "",
          "type": "bytes"
        }
      ],
      "name": "onERC1155BatchReceived",
      "outputs": [
        {
          "internalType": "bytes4",
          "name": "",
          "type": "bytes4"
        }
      ],
      "stateMutability": "nonpayable",
      "type": "function"
    },
    {
      "inputs": [
        {
          "internalType": "address",
          "name": "",
          "type": "address"
        },
        {
          "internalType": "address",
          "name": "",
          "type": "address"
        },
        {
          "internalType": "uint256",
          "name": "",
          "type": "uint256"
        },
        {
          "internalType": "uint256",
          "name": "",
          "type": "uint256"
        },
        {
          "internalType": "bytes",
          "name": "",
          "type": "bytes"
        }
      ],
      "name": "onERC1155Received",
      "outputs": [
        {
          "internalType": "bytes4",
          "name": "",
          "type": "bytes4"
        }
      ],
      "stateMutability": "nonpayable",
      "type": "function"
    },
    {
      "inputs": [
        {
          "internalType": "bytes4",
          "name": "interfaceId",
          "type": "bytes4"
        }
      ],
      "name": "supportsInterface",
      "outputs": [
        {
          "internalType": "bool",
          "name": "",
          "type": "bool"
        }
      ],
      "stateMutability": "view",
      "type": "function"
    }
  ],
  "bytecode": "0x608060405234801561001057600080fd5b5061052c806100206000396000f3fe608060405234801561001057600080fd5b50600436106100415760003560e01c806301ffc9a714610046578063bc197c811461006f578063f23a6e61146100b4575b600080fd5b61005961005436600461017a565b6100ec565b60405161006691906101ad565b60405180910390f35b6100a761007d3660046103b5565b7fbc197c810000000000000000000000000000000000000000000000000000000095945050505050565b604051610066919061048e565b6100a76100c236600461049c565b7ff23a6e610000000000000000000000000000000000000000000000000000000095945050505050565b60006001600160e01b031982167f4e2312e000000000000000000000000000000000000000000000000000000000148061014f57507f01ffc9a7000000000000000000000000000000000000000000000000000000006001600160e01b03198316145b92915050565b6001600160e01b031981165b811461016c57600080fd5b50565b803561014f81610155565b60006020828403121561018f5761018f600080fd5b600061019b848461016f565b949350505050565b8015155b82525050565b6020810161014f82846101a3565b600073ffffffffffffffffffffffffffffffffffffffff821661014f565b610161816101bb565b803561014f816101d9565b7f4e487b7100000000000000000000000000000000000000000000000000000000600052604160045260246000fd5b601f19601f830116810181811067ffffffffffffffff82111715610242576102426101ed565b6040525050565b600061025460405190565b9050610260828261021c565b919050565b600067ffffffffffffffff82111561027f5761027f6101ed565b5060209081020190565b80610161565b803561014f81610289565b60006102ad6102a884610265565b610249565b838152905060208082019084028301858111156102cc576102cc600080fd5b835b818110156102f057806102e1888261028f565b845250602092830192016102ce565b5050509392505050565b600082601f83011261030e5761030e600080fd5b813561019b84826020860161029a565b600067ffffffffffffffff821115610338576103386101ed565b601f19601f83011660200192915050565b82818337506000910152565b60006103636102a88461031e565b90508281526020810184848401111561037e5761037e600080fd5b610389848285610349565b509392505050565b600082601f8301126103a5576103a5600080fd5b813561019b848260208601610355565b600080600080600060a086880312156103d0576103d0600080fd5b60006103dc88886101e2565b95505060206103ed888289016101e2565b945050604086013567ffffffffffffffff81111561040d5761040d600080fd5b610419888289016102fa565b935050606086013567ffffffffffffffff81111561043957610439600080fd5b610445888289016102fa565b925050608086013567ffffffffffffffff81111561046557610465600080fd5b61047188828901610391565b9150509295509295909350565b6001600160e01b031981166101a7565b6020810161014f828461047e565b600080600080600060a086880312156104b7576104b7600080fd5b60006104c388886101e2565b95505060206104d4888289016101e2565b94505060406104e58882890161028f565b93505060606104458882890161028f56fea264697066735822122006cc292ff984bc338caed71d80a9aa0f0cc096cc942a04eca7e16b47c4a0ed6664736f6c63430008130033",
  "linkReferences": {},
  "deployedLinkReferences": {}
}