{
  "_format": "hh-sol-artifact-1",
  "contractName": "ERC6551Account",
  "sourceName": "contracts/ERC6551Account.sol",
  "abi": [
    {
      "anonymous": false,
      "inputs": [
        {
          "indexed": true,
          "internalType": "address",
          "name": "target",
          "type": "address"
        },
        {
          "indexed": true,
          "internalType": "uint256",
          "name": "value",
          "type": "uint256"
        },
        {
          "indexed": false,
          "internalType": "bytes",
          "name": "data",
          "type": "bytes"
        }
      ],
      "name": "TransactionExecuted",
      "type": "event"
    },
    {
      "inputs": [
        {
          "internalType": "address",
          "name": "to",
          "type": "address"
        },
        {
          "internalType": "uint256",
          "name": "value",
          "type": "uint256"
        },
        {
          "internalType": "bytes",
          "name": "data",
          "type": "bytes"
        }
      ],
      "name": "executeCall",
      "outputs": [
        {
          "internalType": "bytes",
          "name": "result",
          "type": "bytes"
        }
      ],
      "stateMutability": "payable",
      "type": "function"
    },
    {
      "inputs": [
        {
          "internalType": "bytes32",
          "name": "hash",
          "type": "bytes32"
        },
        {
          "internalType": "bytes",
          "name": "signature",
          "type": "bytes"
        }
      ],
      "name": "isValidSignature",
      "outputs": [
        {
          "internalType": "bytes4",
          "name": "magicValue",
          "type": "bytes4"
        }
      ],
      "stateMutability": "view",
      "type": "function"
    },
    {
      "inputs": [],
      "name": "nonce",
      "outputs": [
        {
          "internalType": "uint256",
          "name": "",
          "type": "uint256"
        }
      ],
      "stateMutability": "view",
      "type": "function"
    },
    {
      "inputs": [],
      "name": "owner",
      "outputs": [
        {
          "internalType": "address",
          "name": "",
          "type": "address"
        }
      ],
      "stateMutability": "view",
      "type": "function"
    },
    {
      "inputs": [
        {
          "internalType": "bytes4",
          "name": "interfaceId",
          "type": "bytes4"
        }
      ],
      "name": "supportsInterface",
      "outputs": [
        {
          "internalType": "bool",
          "name": "",
          "type": "bool"
        }
      ],
      "stateMutability": "pure",
      "type": "function"
    },
    {
      "inputs": [],
      "name": "token",
      "outputs": [
        {
          "internalType": "uint256",
          "name": "",
          "type": "uint256"
        },
        {
          "internalType": "address",
          "name": "",
          "type": "address"
        },
        {
          "internalType": "uint256",
          "name": "",
          "type": "uint256"
        }
      ],
      "stateMutability": "view",
      "type": "function"
    },
    {
      "stateMutability": "payable",
      "type": "receive"
    }
  ],
  "bytecode": "0x608060405234801561001057600080fd5b50610cd9806100206000396000f3fe6080604052600436106100695760003560e01c80639e5d4c49116100435780639e5d4c49146100fa578063affed0e01461011a578063fc0c546a1461013d57600080fd5b806301ffc9a7146100755780631626ba7e146100ab5780638da5cb5b146100d857600080fd5b3661007057005b600080fd5b34801561008157600080fd5b5061009561009036600461072c565b610161565b6040516100a2919061075f565b60405180910390f35b3480156100b757600080fd5b506100cb6100c6366004610879565b6101ca565b6040516100a291906108e1565b3480156100e457600080fd5b506100ed610201565b6040516100a29190610909565b61010d610108366004610976565b61030e565b6040516100a29190610a3c565b34801561012657600080fd5b5061013060005481565b6040516100a29190610a5a565b34801561014957600080fd5b5061015261043e565b6040516100a293929190610a68565b60006001600160e01b031982167f01ffc9a70000000000000000000000000000000000000000000000000000000014806101c457506001600160e01b031982167f400a039800000000000000000000000000000000000000000000000000000000145b92915050565b6000806101df6101d8610201565b8585610456565b905080156101f75750630b135d3f60e11b90506101c4565b5060009392505050565b600080600080306001600160a01b031663fc0c546a6040518163ffffffff1660e01b8152600401606060405180830381865afa158015610245573d6000803e3d6000fd5b505050506040513d601f19601f820116820180604052508101906102699190610aa6565b925092509250468314610280576000935050505090565b6040517f6352211e0000000000000000000000000000000000000000000000000000000081526001600160a01b03831690636352211e906102c5908490600401610a5a565b602060405180830381865afa1580156102e2573d6000803e3d6000fd5b505050506040513d601f19601f820116820180604052508101906103069190610af6565b935050505090565b6060610318610201565b6001600160a01b0316336001600160a01b03161461036b576040517f08c379a000000000000000000000000000000000000000000000000000000000815260040161036290610b17565b60405180910390fd5b600080815461037990610b68565b9190508190555083856001600160a01b03167f47d99ad340f52da66535aff7e10da1ceb85a32bcbd9fa1c42314d194545e14d285856040516103bc929190610ba5565b60405180910390a36000856001600160a01b03168585856040516103e1929190610bca565b60006040518083038185875af1925050503d806000811461041e576040519150601f19603f3d011682016040523d82523d6000602084013e610423565b606091505b50925090508061043557815160208301fd5b50949350505050565b600080600061044b6104b7565b925092509250909192565b6000806000610465858561050a565b9092509050600081600481111561047e5761047e610bd7565b14801561049c5750856001600160a01b0316826001600160a01b0316145b806104ad57506104ad86868661054f565b9695505050505050565b60408051606080825260808201909252600091829182918291906020820181803683370190505090506060604d60208301303c808060200190518101906104fe9190610aa6565b93509350935050909192565b60008082516041036105405760208301516040840151606085015160001a61053487828585610650565b94509450505050610548565b506000905060025b9250929050565b6000806000856001600160a01b0316631626ba7e60e01b8686604051602401610579929190610bed565b60408051601f198184030181529181526020820180517bffffffffffffffffffffffffffffffffffffffffffffffffffffffff166001600160e01b03199094169390931790925290516105cc9190610c2f565b600060405180830381855afa9150503d8060008114610607576040519150601f19603f3d011682016040523d82523d6000602084013e61060c565b606091505b509150915081801561062057506020815110155b80156104ad57508051630b135d3f60e11b906106459083016020908101908401610c3b565b149695505050505050565b6000807f7fffffffffffffffffffffffffffffff5d576e7357a4501ddfe92f46681b20a083111561068757506000905060036106fe565b6000600187878787604051600081526020016040526040516106ac9493929190610c65565b6020604051602081039080840390855afa1580156106ce573d6000803e3d6000fd5b5050604051601f1901519150506001600160a01b0381166106f7576000600192509250506106fe565b9150600090505b94509492505050565b6001600160e01b031981165b811461071e57600080fd5b50565b80356101c481610707565b60006020828403121561074157610741600080fd5b600061074d8484610721565b949350505050565b8015155b82525050565b602081016101c48284610755565b80610713565b80356101c48161076d565b634e487b7160e01b600052604160045260246000fd5b601f19601f830116810181811067ffffffffffffffff821117156107ba576107ba61077e565b6040525050565b60006107cc60405190565b90506107d88282610794565b919050565b600067ffffffffffffffff8211156107f7576107f761077e565b601f19601f83011660200192915050565b82818337506000910152565b6000610827610822846107dd565b6107c1565b90508281526020810184848401111561084257610842600080fd5b61084d848285610808565b509392505050565b600082601f83011261086957610869600080fd5b813561074d848260208601610814565b6000806040838503121561088f5761088f600080fd5b600061089b8585610773565b925050602083013567ffffffffffffffff8111156108bb576108bb600080fd5b6108c785828601610855565b9150509250929050565b6001600160e01b03198116610759565b602081016101c482846108d1565b60006001600160a01b0382166101c4565b610759816108ef565b602081016101c48284610900565b610713816108ef565b80356101c481610917565b60008083601f84011261094057610940600080fd5b50813567ffffffffffffffff81111561095b5761095b600080fd5b60208301915083600182028301111561054857610548600080fd5b6000806000806060858703121561098f5761098f600080fd5b600061099b8787610920565b94505060206109ac87828801610773565b935050604085013567ffffffffffffffff8111156109cc576109cc600080fd5b6109d88782880161092b565b95989497509550505050565b60005b838110156109ff5781810151838201526020016109e7565b50506000910152565b6000610a12825190565b808452602084019350610a298185602086016109e4565b601f19601f8201165b9093019392505050565b60208082528101610a4d8184610a08565b9392505050565b80610759565b602081016101c48284610a54565b60608101610a768286610a54565b610a836020830185610900565b61074d6040830184610a54565b80516101c48161076d565b80516101c481610917565b600080600060608486031215610abe57610abe600080fd5b6000610aca8686610a90565b9350506020610adb86828701610a9b565b9250506040610aec86828701610a90565b9150509250925092565b600060208284031215610b0b57610b0b600080fd5b600061074d8484610a9b565b602080825281016101c481600f81527f4e6f7420746f6b656e206f776e65720000000000000000000000000000000000602082015260400190565b634e487b7160e01b600052601160045260246000fd5b60006000198203610b7b57610b7b610b52565b5060010190565b8183526000602084019350610b98838584610808565b601f19601f840116610a32565b6020808252810161074d818486610b82565b6000610bc4838584610808565b50500190565b600061074d828486610bb7565b634e487b7160e01b600052602160045260246000fd5b60408101610bfb8285610a54565b818103602083015261074d8184610a08565b6000610c17825190565b610c258185602086016109e4565b9290920192915050565b6000610a4d8284610c0d565b600060208284031215610c5057610c50600080fd5b600061074d8484610a90565b60ff8116610759565b60808101610c738287610a54565b610c806020830186610c5c565b610c8d6040830185610a54565b610c9a6060830184610a54565b9594505050505056fea2646970667358221220ab3da343b93214510cebe5ef15f63606be76e09ef41ef093be9396feb5b5c06d64736f6c63430008130033",
  "linkReferences": {},
  "deployedLinkReferences": {}
}