{
  "_format": "hh-sol-artifact-1",
  "contractName": "MinimalReceiver",
  "sourceName": "lib/MinimalReceiver.sol",
  "abi": [
    {
      "inputs": [
        {
          "internalType": "address",
          "name": "",
          "type": "address"
        },
        {
          "internalType": "address",
          "name": "",
          "type": "address"
        },
        {
          "internalType": "uint256[]",
          "name": "",
          "type": "uint256[]"
        },
        {
          "internalType": "uint256[]",
          "name": "",
          "type": "uint256[]"
        },
        {
          "internalType": "bytes",
          "name": "",
          "type": "bytes"
        }
      ],
      "name": "onERC1155BatchReceived",
      "outputs": [
        {
          "internalType": "bytes4",
          "name": "",
          "type": "bytes4"
        }
      ],
      "stateMutability": "nonpayable",
      "type": "function"
    },
    {
      "inputs": [
        {
          "internalType": "address",
          "name": "",
          "type": "address"
        },
        {
          "internalType": "address",
          "name": "",
          "type": "address"
        },
        {
          "internalType": "uint256",
          "name": "",
          "type": "uint256"
        },
        {
          "internalType": "uint256",
          "name": "",
          "type": "uint256"
        },
        {
          "internalType": "bytes",
          "name": "",
          "type": "bytes"
        }
      ],
      "name": "onERC1155Received",
      "outputs": [
        {
          "internalType": "bytes4",
          "name": "",
          "type": "bytes4"
        }
      ],
      "stateMutability": "nonpayable",
      "type": "function"
    },
    {
      "inputs": [
        {
          "internalType": "address",
          "name": "",
          "type": "address"
        },
        {
          "internalType": "address",
          "name": "",
          "type": "address"
        },
        {
          "internalType": "uint256",
          "name": "",
          "type": "uint256"
        },
        {
          "internalType": "bytes",
          "name": "",
          "type": "bytes"
        }
      ],
      "name": "onERC721Received",
      "outputs": [
        {
          "internalType": "bytes4",
          "name": "",
          "type": "bytes4"
        }
      ],
      "stateMutability": "nonpayable",
      "type": "function"
    },
    {
      "inputs": [
        {
          "internalType": "bytes4",
          "name": "interfaceId",
          "type": "bytes4"
        }
      ],
      "name": "supportsInterface",
      "outputs": [
        {
          "internalType": "bool",
          "name": "",
          "type": "bool"
        }
      ],
      "stateMutability": "view",
      "type": "function"
    },
    {
      "stateMutability": "payable",
      "type": "receive"
    }
  ],
  "bytecode": "0x608060405234801561001057600080fd5b5061061f806100206000396000f3fe6080604052600436106100435760003560e01c806301ffc9a71461004f578063150b7a0214610085578063bc197c81146100d6578063f23a6e611461011b57600080fd5b3661004a57005b600080fd5b34801561005b57600080fd5b5061006f61006a3660046101ee565b610160565b60405161007c9190610221565b60405180910390f35b34801561009157600080fd5b506100c96100a0366004610386565b7f150b7a0200000000000000000000000000000000000000000000000000000000949350505050565b60405161007c9190610415565b3480156100e257600080fd5b506100c96100f13660046104c6565b7fbc197c810000000000000000000000000000000000000000000000000000000095945050505050565b34801561012757600080fd5b506100c961013636600461058f565b7ff23a6e610000000000000000000000000000000000000000000000000000000095945050505050565b60006001600160e01b031982167f4e2312e00000000000000000000000000000000000000000000000000000000014806101c357507f01ffc9a7000000000000000000000000000000000000000000000000000000006001600160e01b03198316145b92915050565b6001600160e01b031981165b81146101e057600080fd5b50565b80356101c3816101c9565b60006020828403121561020357610203600080fd5b600061020f84846101e3565b949350505050565b8015155b82525050565b602081016101c38284610217565b600073ffffffffffffffffffffffffffffffffffffffff82166101c3565b6101d58161022f565b80356101c38161024d565b806101d5565b80356101c381610261565b7f4e487b7100000000000000000000000000000000000000000000000000000000600052604160045260246000fd5b601f19601f830116810181811067ffffffffffffffff821117156102c7576102c7610272565b6040525050565b60006102d960405190565b90506102e582826102a1565b919050565b600067ffffffffffffffff82111561030457610304610272565b601f19601f83011660200192915050565b82818337506000910152565b600061033461032f846102ea565b6102ce565b90508281526020810184848401111561034f5761034f600080fd5b61035a848285610315565b509392505050565b600082601f83011261037657610376600080fd5b813561020f848260208601610321565b6000806000806080858703121561039f5761039f600080fd5b60006103ab8787610256565b94505060206103bc87828801610256565b93505060406103cd87828801610267565b925050606085013567ffffffffffffffff8111156103ed576103ed600080fd5b6103f987828801610362565b91505092959194509250565b6001600160e01b0319811661021b565b602081016101c38284610405565b600067ffffffffffffffff82111561043d5761043d610272565b5060209081020190565b600061045561032f84610423565b8381529050602080820190840283018581111561047457610474600080fd5b835b8181101561049857806104898882610267565b84525060209283019201610476565b5050509392505050565b600082601f8301126104b6576104b6600080fd5b813561020f848260208601610447565b600080600080600060a086880312156104e1576104e1600080fd5b60006104ed8888610256565b95505060206104fe88828901610256565b945050604086013567ffffffffffffffff81111561051e5761051e600080fd5b61052a888289016104a2565b935050606086013567ffffffffffffffff81111561054a5761054a600080fd5b610556888289016104a2565b925050608086013567ffffffffffffffff81111561057657610576600080fd5b61058288828901610362565b9150509295509295909350565b600080600080600060a086880312156105aa576105aa600080fd5b60006105b68888610256565b95505060206105c788828901610256565b94505060406105d888828901610267565b93505060606105568882890161026756fea2646970667358221220e352f61643d7b311167313dea690e44d911fb371c2e9e88a67d2dec0d028797164736f6c63430008130033",
  "linkReferences": {},
  "deployedLinkReferences": {}
}